:100000000C9434000C9451000C9451000C94510049
:100010000C9451000C9451000C9451000C9451001C
:100020000C9451000C9451000C9451000C9451000C
:100030000C9451000C9451000C9451000C945100FC
:100040000C9451000C9451000C9451000C945100EC
:100050000C9451000C9451000C9451000C945100DC
:100060000C9451000C94510011241FBECFEFD8E026
:10007000DEBFCDBF12E0A0E0B1E0EEEDF0E102C0E6
:1000800005900D92A239B107D9F712E0A2E9B2E0CA
:1000900001C01D92A839B107E1F70E94E2040C9457
:1000A0006D080C9400009091C00095FFFCCF8093E8
:1000B000C60008958091C00087FFFCCF8091C600E4
:1000C00008951092C50080E18093C400E0ECF0E058
:1000D00080818260808386E08093C20088E1809383
:1000E000C1000895ECE7F0E0808180648083EAE756
:1000F000F0E0808187688083089590917C008F7004
:10010000907F892B80937C0080917A00806480931B
:100110007A0080917A0086FDFCCF809178009091E2
:1001200079000895539A229A559A569A17BC68BD39
:1001300094B5906894BD94B5906294BD94B5936065
:1001400094BD95B5926095BD8093B400E0EBF0E06E
:10015000808180628083808183608083E1EBF0E036
:100160008081826080838FEF90E0909387008093FE
:10017000860010928B0010928A00E0E8F0E0808107
:1001800080628083808182608083E1E8F0E080810A
:10019000886180838081826080830895539A229A47
:1001A000559A569A67BD18BC24B5206824BD24B55D
:1001B000206224BD24B5236024BD25B5226025BD61
:1001C0001092B400E0EBF0E02081206220832081D7
:1001D00023602083E1EBF0E02081226020832FEF79
:1001E00030E0309387002093860090938B008093BB
:1001F0008A00E0E8F0E08081806280838081826014
:100200008083E1E8F0E08081886180838081826082
:1002100080830895539A229A559A569A17BC68BDBE
:1002200024B5206824BD24B5206224BD24B52360F4
:1002300024BD25B5226025BD1092B400E0EBF0E0AE
:10024000208120622083208123602083E1EBF0E085
:100250002081226020832FEF30E0309387002093AD
:10026000860090938B0080938A00E0E8F0E0808124
:1002700080628083808182608083E1E8F0E0808119
:10028000886180838081826080830895539A229A56
:10029000559A569A67BD18BC94B5906894BD94B5AC
:1002A000906294BD94B5936094BD95B5926095BDF0
:1002B0008093B400E0EBF0E08081806280838081F5
:1002C00083608083E1EBF0E08081826080838FEF48
:1002D00090E0909387008093860010928B0010929C
:1002E0008A00E0E8F0E08081806280838081826023
:1002F0008083E1E8F0E08081886180838081826092
:100300008083089553982298559856980895CF93CE
:10031000DF93CDB7DEB727970FB6F894DEBF0FBED9
:10032000CDBF21E030E03F832E8307E112E08AE277
:10033000C82E81E0D82E98E7692E91E0792E5524B9
:100340005A9423E6A22EB12C8FE99FE00197F1F792
:1003500000C000008091C00087FDC6C02E813F8193
:100360002130310589F33FEF40E782E031504040D2
:100370008040E1F700C0000080917C00807F809386
:100380007C0080917A00806480937A0080917A006A
:1003900086FDFCCFE0907800F09079009FEFA0E719
:1003A000B2E09150A040B040E1F700C00000809161
:1003B0007C00807F816080937C0080917A008064E3
:1003C00080937A0080917A0086FDFCCF809178003E
:1003D00090917900EFEFF0E722E0E150F04020400B
:1003E000E1F700C0000020917C00207F2260209374
:1003F0007C0020917A00206420937A0020917A007A
:1004000026FDFCCF20917800309179003F932F9307
:100410009F938F93FF92EF921F930F930E947D05FE
:100420000FB6F894DEBF0FBECDBF94E6E916F10417
:100430000CF08ACF53982298559856988AE092E00B
:100440000E949105AFEFBFE9EFE0A150B040E0405E
:10045000E1F700C0000060EA70E080EA90E00E94EE
:10046000CE0083EB91E00E949105FFEF23ED30E396
:10047000F15020403040E1F700C00000539822982E
:10048000559856988AE092E00E9491054FEF8FE9C7
:100490009FE0415080409040E1F700C0000060EADA
:1004A00070E080EA90E00E9446018EE492E00E94B3
:1004B0009105AFEFBFE9EFE0A150B040E040E1F7B8
:1004C00000C0000053982298559856988AE092E010
:1004D0000E949105FFEF2FE93FE0F15020403040AE
:1004E000E1F700C0000030CF2091C600E22EFF24CB
:1004F000E7FCF094FF922F93DF92CF922D830E941E
:100500007D050F900F900F900F902D81213609F4EB
:100510005CC091E0283609F456C081E03EE8320F15
:10052000323008F480E0892391E0322F377F34366F
:1005300091F1982399F5243649F1283621F1263690
:1005400009F4B0C1223609F436C1223709F4BCC01F
:100550002C3609F442C0233709F0F6CEFF922F93D0
:10056000AEEEB1E0BF93AF930E947D055398229801
:10057000559856988AE092E00E9491050F900F904E
:100580000F900F90E1CE1F821E82DECE21E030E080
:100590003F832E83D9CE90E0982369F2822F8B7F00
:1005A000823649F2A9E4B1E0BF93AF932D830E9454
:1005B0007D0580919202909193020E943F050F90D9
:1005C0000F902D81BACF90E0A8CF86E391E00E94F2
:1005D00091050E94C9042D81E5CF809192029091EE
:1005E00093022D830E943F059A8389838091920212
:1005F000909193020E943F059C838B83809192028D
:10060000909193020E943F054C018091920290913B
:1006100093020E943F051C013F928F939F928F92FD
:10062000FC81FF933B813F934A814F9389818F9354
:10063000FF922D812F937F926F920E947D0590E310
:10064000891A91089401220F331F880C991C880C79
:10065000991C880C991C280D391DA0E32A1A310811
:10066000220D331D529EC001539E900D1124B501E1
:100670000E9417059B0189819A81C097AC01440FA4
:10068000551F880F991F880F991F880F991F480FB2
:10069000591F8B819C81C097480F591F549EC001E0
:1006A000559E900D1124B5010E941705CB01B9018B
:1006B0000E940A018CED91E00E9491050FB6F8941A
:1006C000DEBF0FBECDBF40CE8091920290919302CB
:1006D0002D830E943F059A83898380919202909195
:1006E00093020E943F059C838B838091920290919C
:1006F00093020E943F054C018091920290919302D7
:100700000E943F051C013F928F939F928F923C81E4
:100710003F934B814F938A818F9399819F93FF924F
:100720002D812F937F926F920E947D05A0E38A1AFC
:1007300091089401220F331F880C991C880C991C76
:10074000880C991C280D391DB0E32B1A3108220D95
:10075000331D529EC001539E900D1124B5010E947D
:1007600017059B0189819A81C097AC01440F551FE1
:10077000880F991F880F991F880F991F480F591FBD
:100780008B819C81C097480F591F549EC001559E74
:10079000900D1124B5010E941705CB01B9010E94EB
:1007A000460189EC91E00E9491050FB6F894DEBFF6
:1007B0000FBECDBFC9CD80919202909193022D833F
:1007C0000E943F059A8389838091920290919302BF
:1007D0000E943F059C838B838091920290919302AB
:1007E0000E943F054C0180919202909193020E94D9
:1007F0003F051C013F928F939F928F92FC81FF9344
:100800003B813F934A814F9389818F93FF922D8142
:100810002F937F926F920E947D0590E3891A910831
:100820009401220F331F880C991C880C991C880C8A
:10083000991C280D391DA0E32A1A3108220D331DF9
:10084000529EC001539E900D1124B5010E941705C0
:100850009B0189819A81C097AC01440F551F880F75
:10086000991F880F991F880F991F480F591F8B8157
:100870009C81C097480F591F549EC001559E900DF2
:100880001124B5010E941705CB01B9010E94CE00C9
:1008900083EB91E00E9491050FB6F894DEBF0FBE86
:1008A000CDBF52CD80919202909193022D830E94F0
:1008B0003F059A83898380919202909193020E94CE
:1008C0003F059C838B8380919202909193020E94BA
:1008D0003F054C0180919202909193020E943F0546
:1008E0001C013F928F939F928F92FC81FF933B81DB
:1008F0003F934A814F9389818F93FF922D812F934C
:100900007F926F920E947D0590E3891A910894016D
:10091000220F331F880C991C880C991C880C991C79
:10092000280D391DA0E32A1A3108220D331D529ECD
:10093000C001539E900D1124B5010E9417059B0123
:1009400089819A81C097AC01440F551F880F991F68
:10095000880F991F880F991F480F591F8B819C8101
:10096000C097480F591F549EC001559E900D1124E9
:10097000B5010E941705CB01B9010E9492008EE9D2
:1009800091E00E9491050FB6F894DEBF0FBECDBF77
:10099000DBCC80919202909193020E943F058337B5
:1009A00041F08D36B1F78EE692E00E9491050E94EB
:1009B0008701539822985598569881E692E00E94B4
:1009C0009105E7CF1092C50080E18093C400E0EC70
:1009D000F0E080818260808386E08093C20088E1BD
:1009E0008093C1008CE191E09093950280939402F2
:1009F0008EE091E0909393028093920283E892E0DC
:100A00000E949105ECE7F0E0808180648083EAE752
:100A1000F0E0808187688083539822985598569893
:100A200084B1836084B9289A29980E94870197FB32
:100A3000072E16F4009407D077FD09D00E942B05ED
:100A400007FC05D03EF4909581959F4F08957095D1
:100A500061957F4F0895AA1BBB1B51E107C0AA1FD8
:100A6000BB1FA617B70710F0A61BB70B881F991F4F
:100A70005A95A9F780959095BC01CD010895CF9323
:100A8000DF93EC012B8120FF33C026FF0AC02F7BB0
:100A90002B838E819F8101969F838E838A8190E034
:100AA00029C022FF0FC0E881F9818081992787FD45
:100AB0009095009719F420622B831AC03196F98320
:100AC000E8830EC0EA85FB85099597FF09C02B8155
:100AD000019611F480E101C080E2822B8B8308C073
:100AE0002E813F812F5F3F4F3F832E83992702C086
:100AF0008FEF9FEFDF91CF910895A0E0B0E0E3E8A2
:100B0000F5E00C944608FE01359661917191AF01B4
:100B100080919402909195020E94BE05E2E00C94AF
:100B200062080F931F93CF93DF93E0919402F091AB
:100B30009502238121FF1BC0EC0100E010E08991A8
:100B40006091940270919502DB011896ED91FC91F1
:100B50001997882331F00995892B89F30FEF1FEF3F
:100B6000EECF8AE00995892B11F4C80102C08FEFFE
:100B70009FEFDF91CF911F910F910895ACE0B0E00E
:100B8000E4ECF5E00C9436087C016B018A01FC0171
:100B900017821682838181FFBDC1CE0101964C016F
:100BA000F7019381F60193FD859193FF81916F0188
:100BB000882309F4ABC1853239F493FD859193FF05
:100BC00081916F01853229F4B70190E00E94A60758
:100BD000E7CF512C312C20E02032A0F48B3269F089
:100BE00030F4803259F0833269F420612CC08D32A8
:100BF00039F0803339F4216026C02260246023C09C
:100C0000286021C027FD27C030ED380F3A3078F436
:100C100026FF06C0FAE05F9E300D1124532E13C04C
:100C20008AE0389E300D1124332E20620CC08E32A3
:100C300021F426FD6BC1206406C08C3611F42068B7
:100C400002C0883641F4F60193FD859193FF8191AE
:100C50006F018111C1CF982F9F7D9554933028F457
:100C60000C5F1F4FFFE3F9830DC0833631F08337EC
:100C700071F0833509F05BC022C0F801808189835F
:100C80000E5F1F4F44244394512C540115C038016A
:100C9000F2E06F0E711CF801A080B18026FF03C046
:100CA000652D70E002C06FEF7FEFC5012C870E94B9
:100CB0009B072C0183012C852F77222E17C038012A
:100CC000F2E06F0E711CF801A080B18026FF03C016
:100CD000652D70E002C06FEF7FEFC5012C870E9489
:100CE00090072C012C852068222E830123FC1BC039
:100CF000832D90E048165906B0F4B70180E290E0E9
:100D00000E94A6073A94F4CFF50127FC859127FEAF
:100D100081915F01B70190E00E94A60731103A94DB
:100D2000F1E04F1A51084114510471F7E5C08436BF
:100D300011F0893639F5F80127FF07C0608171810C
:100D4000828193810C5F1F4F08C060817181882769
:100D500077FD8095982F0E5F1F4F2F76B22E97FF4D
:100D600009C090958095709561957F4F8F4F9F4FEB
:100D70002068B22E2AE030E0A4010E94D807A82EF5
:100D8000A81844C0853729F42F7EB22E2AE030E01F
:100D900025C0F22FF97FBF2E8F36C1F018F48835A9
:100DA00079F0B4C0803719F0883721F0AFC02F2F09
:100DB0002061B22EB4FE0DC08B2D8460B82E09C008
:100DC00024FF0AC09F2F9660B92E06C028E030E0AD
:100DD00005C020E130E002C020E132E0F801B7FEBA
:100DE00007C060817181828193810C5F1F4F06C0B3
:100DF0006081718180E090E00E5F1F4FA4010E942E
:100E0000D807A82EA818FB2DFF77BF2EB6FE0BC063
:100E10002B2D2E7FA51450F4B4FE0AC0B2FC08C0DE
:100E20002B2D2E7E05C07A2C2B2D03C07A2C01C0D1
:100E3000752C24FF0DC0FE01EA0DF11D8081803369
:100E400011F4297E09C022FF06C07394739404C074
:100E5000822F867809F0739423FD13C020FF06C00B
:100E60005A2C731418F4530C5718732C731468F419
:100E7000B70180E290E02C870E94A60773942C852E
:100E8000F5CF731410F4371801C0312C24FF12C0B1
:100E9000B70180E390E02C870E94A6072C8522FFF3
:100EA00017C021FF03C088E590E002C088E790E00A
:100EB000B7010CC0822F867859F021FD02C080E274
:100EC00001C08BE227FD8DE2B70190E00E94A607EA
:100ED000A51438F4B70180E390E00E94A6075A9465
:100EE000F7CFAA94F401EA0DF11D8081B70190E0DB
:100EF0000E94A607A110F5CF332009F451CEB70107
:100F000080E290E00E94A6073A94F6CFF70186812E
:100F1000978102C08FEF9FEF2C96E2E10C9452086C
:100F2000FC010590615070400110D8F780959095B4
:100F30008E0F9F1F0895FC016150704001900110B9
:100F4000D8F7809590958E0F9F1F08950F931F934C
:100F5000CF93DF93182F092FEB018B8181FD03C005
:100F60008FEF9FEF20C082FF10C04E815F812C81E8
:100F70003D81421753077CF4E881F9819F012F5F7F
:100F80003F4F39832883108306C0E885F985812F78
:100F90000995892B29F72E813F812F5F3F4F3F8392
:100FA0002E83812F902FDF91CF911F910F91089564
:100FB000FA01AA27283051F1203181F1E8946F938A
:100FC0006E7F6E5F7F4F8F4F9F4FAF4FB1E03ED030
:100FD000B4E03CD0670F781F891F9A1FA11D680FCE
:100FE000791F8A1F911DA11D6A0F711D811D911D01
:100FF000A11D20D009F468943F912AE0269F112476
:101000003019305D3193DEF6CF010895462F4770D9
:10101000405D4193B3E00FD0C9F7F6CF462F4F7034
:10102000405D4A3318F0495D31FD4052419302D092
:10103000A9F7EACFB4E0A695979587957795679538
:10104000BA95C9F700976105710508959B01AC0138
:101050000A2E06945795479537952795BA95C9F75F
:10106000620F731F841F951FA01D08952F923F923A
:101070004F925F926F927F928F929F92AF92BF92A8
:10108000CF92DF92EF92FF920F931F93CF93DF9354
:10109000CDB7DEB7CA1BDB0B0FB6F894DEBF0FBEB1
:1010A000CDBF09942A88398848885F846E847D84FE
:1010B0008C849B84AA84B984C884DF80EE80FD8000
:1010C0000C811B81AA81B981CE0FD11D0FB6F89476
:0E10D000DEBF0FBECDBFED010895F894FFCF37
:1010DE00000000030000000053005A000000000052
:1010EE0000010000000000005A0000000000000295
:1010FE000000000053000000000055445230203D17
:10110E002025630D0A004175746F206D6F64652094
:10111E00656E61626C65640D00456E746572207655
:10112E00616C696420646972656374696F6E2063B3
:10113E00686172616374657228662C622C6C2C7205
:10114E002C732C642C682900596F7520656E74659C
:10115E0072656420696E707574206173203A202563
:10116E0063202563256320256325630D0A00526FD6
:10117E00626F74206D6F76657320666F7277617221
:10118E00640D00526F626F74206D6F76657320620E
:10119E0061636B776172640D00526F626F74206DC4
:1011AE006F7665732072696768740D00526F626F97
:1011BE0074206D6F766573206C6566740D00596FC3
:1011CE007520656E746572656420696E7075742025
:1011DE006173203A2025630D0A00526F626F7420EE
:1011EE0073746F70730D0053656E736F722052655A
:1011FE006164696E6773203A2020436C69664C20E7
:10120E003D2025642C20436C696652203D202564C8
:10121E002C2042756D70203D2025640D0A00526F02
:10122E00626F74206D6F7665732052696768740DF6
:10123E0000526F626F742053746F70730D004D61A6
:10124E006E75616C206D6F646520656E61626C6594
:10125E00640D0048656C6C6F20776F726C64210DA5
:02126E0000007E
:00000001FF
