:100000000C943A000C9457000C9457000C94570031
:100010000C9457000C9457000C9457000C94570004
:100020000C9457000C9457000C9457000C945700F4
:100030000C9457000C9457000C9457000C945700E4
:100040000C9457000C9457000C9457000C945700D4
:100050000C9457000C9457000C9457000C945700C4
:100060000C9457000C9457006364696E6F7073753D
:1000700078585B0011241FBECFEFD8E0DEBFCDBFA4
:1000800012E0A0E0B1E0E2E6F9E102C005900D92D5
:10009000A23AB107D9F712E0A2EAB2E001C01D927C
:1000A000A23FB107E1F70E9403060C94AF0C0C9439
:1000B00000009091C00095FFFCCF8093C60008958A
:1000C0008091C00087FFFCCF8091C60008951092F8
:1000D000C50080E18093C400E0ECF0E080818260A4
:1000E000808386E08093C20088E18093C1000895F8
:1000F000ECE7F0E0808180648083EAE7F0E08081D3
:1001000087688083089590917C008F70907F892B01
:1001100080937C0080917A00806480937A00809143
:100120007A0086FDFCCF8091780090917900089547
:10013000229A9AB198669AB917BC68BD94B590682E
:1001400094BD94B5906294BD94B5936094BD95B5FB
:10015000926095BD8093B400E0EBF0E08081806216
:100160008083808183608083E1EBF0E08081826026
:1001700080838FEF90E090938700809386001092A9
:100180008B0010928A00E0E8F0E08081806280833A
:10019000808182608083E1E8F0E0808188618083F3
:1001A0008081826080830895229A2AB128662AB9C4
:1001B00067BD18BC24B5206824BD24B5206224BDC9
:1001C00024B5236024BD25B5226025BD1092B4005E
:1001D000E0EBF0E0208120622083208123602083F7
:1001E000E1EBF0E02081226020832FEF30E03093BC
:1001F00087002093860090938B0080938A00E0E82C
:10020000F0E0808180628083808182608083E1E889
:10021000F0E080818861808380818260808308959E
:10022000229A2AB128662AB917BC68BD24B520686D
:1002300024BD24B5206224BD24B5236024BD25B58A
:10024000226025BD1092B400E0EBF0E02081206236
:100250002083208123602083E1EBF0E02081226075
:1002600020832FEF30E03093870020938600909317
:100270008B0080938A00E0E8F0E0808180628083D8
:10028000808182608083E1E8F0E080818861808302
:100290008081826080830895229A9AB198669AB983
:1002A00067BD18BC94B5906894BD94B5906294BD38
:1002B00094B5936094BD95B5926095BD8093B4005C
:1002C000E0EBF0E0808180628083808183608083C6
:1002D000E1EBF0E08081826080838FEF90E090938B
:1002E00087008093860010928B0010928A00E0E8CD
:1002F000F0E0808180628083808182608083E1E899
:10030000F0E08081886180838081826080830895AD
:1003100022988AB187798AB981E090E09093A3020C
:100320008093A202089520EA36E8AC01429FC00102
:10033000439F900D529F900D1124860F971F089593
:1003400085B192E0892785B90895229A8AB1886695
:100350008AB9089522988AB187798AB90895CF9386
:10036000DF932FEF30E742E0215030404040E1F78B
:1003700000C0000080917C00807F80937C00809191
:100380007A00806480937A0080917A0086FDFCCFA9
:10039000C0917800D09179008FEF90E722E08150F2
:1003A00090402040E1F700C0000080917C00807FF9
:1003B000816080937C0080917A00806480937A00D1
:1003C00080917A0086FDFCCF809178009091790031
:1003D0003FEF40E722E0315040402040E1F700C0CD
:1003E000000020917C00207F226020937C002091DF
:1003F0007A00206420937A0020917A0026FDFCCFB9
:1004000020917800309179003F932F939F938F93A1
:10041000DF93CF938AE291E09F938F930E94BD0672
:100420008DB79EB708960FB6F8949EBF0FBE8DBFCE
:10043000C436D1050CF067C022988AB187798AB991
:10044000C1E0D0E0D093A302C093A20281E691E084
:100450000E94D1069FEF2FE93FE0915020403040AD
:10046000E1F700C0000060EA70E080EA90E00E94DE
:10047000D4008EE691E00E94D1064FEF83ED90E329
:10048000415080409040E1F700C0000022988AB1BE
:1004900087798AB9D093A302C093A20281E691E042
:1004A0000E94D1062FEF3FE94FE0215030404040FD
:1004B000E1F700C0000060EA70E080EA90E00E948E
:1004C0004C0184E891E00E94D1068FEF9FE92FE074
:1004D000815090402040E1F700C0000022988AB18E
:1004E00087798AB9D093A302C093A20281E691E0F2
:1004F0000E94D1063FEF4FE98FE0315040408040ED
:10050000E1F700C00000DF91CF910895CF93DF9312
:1005100000D000D01F92CDB7DEB781E090E09D8380
:100520008C83E7E9EE2EE1E0FE2EF5EEAF2EF1E052
:10053000BF2E77247A94A3E6CA2ED12CAFE9BFE070
:100540001197F1F700C000008091C00087FD07C03F
:10055000AC81BD81119791F30E94AF01EFCF209143
:10056000C600022F112707FD10951F932F93FF92AE
:10057000EF922B830E94BD060F900F900F900F906B
:100580002B81213609F44AC191E0283609F4D0C004
:1005900081E03EE8320F323008F480E0892391E0B8
:1005A000322F377F343609F4C1C0982399F0822F57
:1005B0008B7F823679F006EB11E01F930F930E9438
:1005C000BD068091EC029091ED020E947F060F9093
:1005D0000F90F3CF243609F4A4C0283609F49EC046
:1005E000263609F4A7C0223609F493C1223709F050
:1005F00074C08091EC029091ED022B830E947F06E3
:100600001C018091EC029091ED020E947F069A837A
:1006100089838091EC029091ED020E947F064C014B
:100620008091EC029091ED020E947F062C015F9276
:100630008F939F928F92BA81BF93E981EF933F92FC
:100640002F921F932B812F93BF92AF920E94BD06D2
:10065000F0E38F1A91089401220F331F880C991C24
:10066000880C991C880C991C280D391D80E3481AA8
:100670005108240D351D729EC001739E900D1124EA
:10068000B6010E9457069B0190E3291A3108A10187
:10069000440F551F220C331C220C331C220C331C1C
:1006A000420D531D89819A81C097480F591F749E2E
:1006B000C001759E900D1124B6010E945706CB0112
:1006C000B9010E944C0180E292E00E94D1060FB66F
:1006D000F894DEBF0FBECDBF31CF2C3609F4A5C0D4
:1006E000233709F02BCF1F932F93A5E4B2E0BF93DC
:1006F000AF930E94BD0622988AB187798AB981E0BA
:1007000090E09093A3028093A20281E691E00E9480
:10071000D1060F900F900F900F9010CF1D821C826A
:100720000DCFE1E0F0E0FD83EC8308CF90E03DCF1A
:1007300090E02ECF8091EC029091ED022B830E94ED
:100740007F062C018091EC029091ED020E947F06C1
:100750009A8389838091EC029091ED020E947F063A
:100760004C018091EC029091ED020E947F061C01E9
:100770003F928F939F928F92BA81BF93E981EF93BB
:100780005F924F921F932B812F93BF92AF920E9443
:10079000BD06F0E38F1A91089401220F331F880CD5
:1007A000991C880C991C880C991C280D391D80E314
:1007B000281A3108220D331D729EC001739E900DC0
:1007C0001124B6010E9457069B0190E3491A510873
:1007D000A201440F551F440C551C440C551C440CDD
:1007E000551C440D551D89819A81C097480F591F8A
:1007F000749EC001759E900D1124B6010E9457068B
:10080000CB01B9010E9498008BE092E00E94D106D2
:100810000FB6F894DEBF0FBECDBF90CE83EA91E055
:100820000E94D1060E94FD04C6CE8091EC029091F8
:10083000ED022B830E947F061C018091EC029091B7
:10084000ED020E947F069A8389838091EC02909149
:10085000ED020E947F064C018091EC029091ED0226
:100860000E947F062C015F928F939F928F92BA8194
:10087000BF93E981EF933F922F921F932B812F9388
:10088000BF92AF920E94BD06F0E38F1A91089401C7
:10089000220F331F880C991C880C991C880C991CFA
:1008A000280D391D80E3481A5108240D351D729E0C
:1008B000C001739E900D1124B6010E9457069B0142
:1008C00090E3291A3108A101440F551F220C331C53
:1008D000220C331C220C331C420D531D89819A813A
:1008E000C097480F591F749EC001759E900D11242A
:1008F000B6010E945706CB01B9010E94100183E3A3
:1009000092E00E94D1060FB6F894DEBF0FBECDBFB5
:1009100015CE8091EC029091ED022B830E947F0610
:100920001C018091EC029091ED020E947F069A8357
:1009300089838091EC029091ED020E947F064C0128
:100940008091EC029091ED020E947F062C015F9253
:100950008F939F928F92BA81BF93E981EF933F92D9
:100960002F921F932B812F93BF92AF920E94BD06AF
:10097000F0E38F1A91089401220F331F880C991C01
:10098000880C991C880C991C280D391D80E3481A85
:100990005108240D351D729EC001739E900D1124C7
:1009A000B6010E9457069B0190E3291A3108A10164
:1009B000440F551F220C331C220C331C220C331CF9
:1009C000420D531D89819A81C097480F591F749E0B
:1009D000C001759E900D1124B6010E945706CB01EF
:1009E000B9010E94D4008EE691E00E94D1060FB6B4
:1009F000F894DEBF0FBECDBFA1CDC1E0D0E08091A5
:100A0000EC029091ED020E947F06833741F08D3613
:100A1000B1F78EE692E00E94D1060E9486022298EB
:100A20008AB187798AB9D093A302C093A20281E6E2
:100A300092E00E94D106E3CFAF92BF92CF92DF92B5
:100A4000EF92FF920F931F93CF93DF935C017B0193
:100A500080E2F5018083F1E0EF1AF1088501CFEF24
:100A6000DFEF0DC0219668018091EC029091ED02BC
:100A70000E947F06F80181938F01813731F0CE15F6
:100A8000DF0584F36501CC0EDD1EF6011082CE0178
:100A9000DF91CF911F910F91FF90EF90DF90CF905A
:100AA000BF90AF9008951F93CF93DF9300D000D0F5
:100AB000CDB7DEB7161617060CF042C025B132E0EE
:100AC000232725B9FC0110811B3609F463C02FEFE1
:100AD00030E03C832B833A83298365307105C4F56C
:100AE000143609F450C0153664F0133709F45DC0AC
:100AF000173731F569817A818B819C810E9498003A
:100B000008C01136E9F469817A818B819C810E9449
:100B100010011092A3021092A2028091A80290915B
:100B2000A902A091AA02B091AB020196A11DB11D2C
:100B30008093A4029093A502A093A602B093A7026B
:100B40000F900F900F900F90DF91CF911F9108950C
:100B50009E012F5F3F4F3F932F939E012D5F3F4F8D
:100B60003F932F9323E832E03F932F9302969F9376
:100B70008F930E94FE060FB6F894DEBF0FBECDBF66
:100B8000143609F0B0CF69817A818B819C810E94F3
:100B90004C01BFCF22982AB127792AB921E030E051
:100BA0003093A3022093A20292CF69817A818B8134
:100BB0009C810E94D400ADCF06C08091EC02909140
:100BC000ED020E947F068091C00087FDF6CF089558
:100BD0000E94AF018091C00087FF089560E470E03B
:100BE0008CEA92E00E941C058CEA92E09F938F931E
:100BF00089E892E09F938F930E94BD060F900F901B
:100C00000F900F9008951092C50080E18093C4006A
:100C10008091C00082608093C00086E08093C20013
:100C200088E18093C1008CE191E09093EF02809382
:100C3000EE028EE091E09093ED028093EC0284E965
:100C400092E00E94D10680917C00806480937C00B9
:100C500080917A00876880937A0022988AB1877998
:100C60008AB981E090E09093A3028093A20284B1BC
:100C7000836084B9289A2998539A229A559A569A49
:100C80008091C00087FF0AC08091EC029091ED0234
:100C90000E947F068091C00087FDF6CF81E090E042
:100CA0009093A3028093A2020E94E805FDCF97FBD8
:100CB000072E16F4009407D077FD09D00E946B062A
:100CC00007FC05D03EF4909581959F4F089570954F
:100CD00061957F4F0895AA1BBB1B51E107C0AA1F56
:100CE000BB1FA617B70710F0A61BB70B881F991FCD
:100CF0005A95A9F780959095BC01CD010895CF93A1
:100D0000DF93EC012B8120FF33C026FF0AC02F7B2D
:100D10002B838E819F8101969F838E838A8190E0B1
:100D200029C022FF0FC0E881F9818081992787FDC2
:100D30009095009719F420622B831AC03196F9839D
:100D4000E8830EC0EA85FB85099597FF09C02B81D2
:100D5000019611F480E101C080E2822B8B8308C0F0
:100D60002E813F812F5F3F4F3F832E83992702C003
:100D70008FEF9FEFDF91CF910895A0E0B0E0E3EC1B
:100D8000F6E00C94880CFE01359661917191AF01EB
:100D90008091EE029091EF020E941707E2E00C941E
:100DA000A40C0F931F93CF93DF93E091EE02F09189
:100DB000EF02238121FF1BC0EC0100E010E08991CC
:100DC0006091EE027091EF02DB011896ED91FC91BB
:100DD0001997882331F00995892B89F30FEF1FEFBD
:100DE000EECF8AE00995892B11F4C80102C08FEF7C
:100DF0009FEFDF91CF911F910F910895AEE0B0E08A
:100E0000E4E0F7E00C94880C85E08C838B899C8966
:100E10009A838983AE01495E5F4F6D897E89CE01D9
:100E200001960E946A0A2E96E2E00C94A40CACE0B3
:100E3000B0E0EDE1F7E00C94780C7C016B018A01E5
:100E4000FC0117821682838181FFBDC1CE0101960C
:100E50004C01F7019381F60193FD859193FF8191F8
:100E60006F01882309F4ABC1853239F493FD859174
:100E700093FF81916F01853229F4B70190E00E94C0
:100E8000CC0BE7CF512C312C20E02032A0F48B3258
:100E900069F030F4803259F0833269F420612CC05B
:100EA0008D3239F0803339F4216026C0226024600D
:100EB00023C0286021C027FD27C030ED380F3A300D
:100EC00078F426FF06C0FAE05F9E300D1124532E01
:100ED00013C08AE0389E300D1124332E20620CC0DE
:100EE0008E3221F426FD6BC1206406C08C3611F4CD
:100EF000206802C0883641F4F60193FD859193FF86
:100F000081916F018111C1CF982F9F7D95549330AE
:100F100028F40C5F1F4FFFE3F9830DC0833631F0D7
:100F2000833771F0833509F05BC022C0F8018081FE
:100F300089830E5F1F4F44244394512C540115C0E4
:100F40003801F2E06F0E711CF801A080B18026FF1D
:100F500003C0652D70E002C06FEF7FEFC5012C87E5
:100F60000E94C10B2C0183012C852F77222E17C0E4
:100F70003801F2E06F0E711CF801A080B18026FFED
:100F800003C0652D70E002C06FEF7FEFC5012C87B5
:100F90000E94B60B2C012C852068222E830123FC95
:100FA0001BC0832D90E048165906B0F4B70180E2CB
:100FB00090E00E94CC0B3A94F4CFF50127FC859188
:100FC00027FE81915F01B70190E00E94CC0B3110A8
:100FD0003A94F1E04F1A51084114510471F7E5C0F9
:100FE000843611F0893639F5F80127FF07C0608192
:100FF0007181828193810C5F1F4F08C06081718174
:10100000882777FD8095982F0E5F1F4F2F76B22E81
:1010100097FF09C090958095709561957F4F8F4F90
:101020009F4F2068B22E2AE030E0A4010E94170CE6
:10103000A82EA81844C0853729F42F7EB22E2AE0A6
:1010400030E025C0F22FF97FBF2E8F36C1F018F4A3
:10105000883579F0B4C0803719F0883721F0AFC0F7
:101060002F2F2061B22EB4FE0DC08B2D8460B82EC0
:1010700009C024FF0AC09F2F9660B92E06C028E041
:1010800030E005C020E130E002C020E132E0F801AC
:10109000B7FE07C060817181828193810C5F1F4F11
:1010A00006C06081718180E090E00E5F1F4FA40157
:1010B0000E94170CA82EA818FB2DFF77BF2EB6FE96
:1010C0000BC02B2D2E7FA51450F4B4FE0AC0B2FC29
:1010D00008C02B2D2E7E05C07A2C2B2D03C07A2C18
:1010E00001C0752C24FF0DC0FE01EA0DF11D8081A9
:1010F000803311F4297E09C022FF06C073947394D3
:1011000004C0822F867809F0739423FD13C020FF5A
:1011100006C05A2C731418F4530C5718732C7314FC
:1011200068F4B70180E290E02C870E94CC0B7394A6
:101130002C85F5CF731410F4371801C0312C24FF1F
:1011400012C0B70180E390E02C870E94CC0B2C8565
:1011500022FF17C021FF03C088E590E002C088E7A6
:1011600090E0B7010CC0822F867859F021FD02C0B3
:1011700080E201C08BE227FD8DE2B70190E00E9482
:10118000CC0BA51438F4B70180E390E00E94CC0B9F
:101190005A94F7CFAA94F401EA0DF11D8081B701AA
:1011A00090E00E94CC0BA110F5CF332009F451CE72
:1011B000B70180E290E00E94CC0B3A94F6CFF701A1
:1011C0008681978102C08FEF9FEF2C96E2E10C940D
:1011D000940C20FD09C0FC0123FD05C022FF02C0C4
:1011E0007383628351834083089544FD10C046FD9C
:1011F00010C0DB01FC01AA0FBB1FEE1FFF1F1094E4
:10120000D1F76A0F7B1F8E1F9F1F31E003C033E0B1
:1012100001C034E0660F771F881F991F3150D1F746
:10122000620F711D811D911D08950F931F93CF9320
:10123000DF938C01C8010E947F06EC0197FD08C076
:101240000E94A30B892BB1F7B801CE010E94FE0BBF
:10125000CE01DF91CF911F910F9108958F929F92B0
:10126000AF92CF92DF92EF92FF920F931F93CF93A3
:10127000DF93EC01A62E4A01022F0E947F06AC01EB
:1012800055274B32510521F04D32510559F4006874
:10129000AA94A11002C080E069C0CE010E947F061E
:1012A00097FDF9CF102F1D7F302F307309F5803354
:1012B000F9F4FF24FA94FA0C09F444C0CE010E9418
:1012C0007F0697FD3FC0382F3F7D383559F41264B3
:1012D000AA94AA94AA20B1F1CE010E947F0697FF9A
:1012E00007C030C006FF02C0126001C01261AF2CFF
:1012F000C12CD12C760120ED280F283080F014FF6E
:1013000004C0BE010E94FE0B1AC02A3040F016FF36
:10131000F8CF2F7D3FEE320F363098F72750412F10
:10132000C701B6010E94F5086B017C011260AA9406
:10133000AA2059F0CE010E947F0697FFDCCF11FD55
:1013400004C0A9CFC12CD12C760117FF08C0F0949E
:10135000E094D094C094C11CD11CE11CF11C212F3D
:10136000B701A601C4010E94E90881E0DF91CF9195
:101370001F910F91FF90EF90DF90CF90AF909F90D3
:101380008F900895A1E2B0E0E8ECF9E00C947D0CB8
:101390005C017A018E010F5F1F4F680180E2D80166
:1013A0001D928A95E9F7F501738040E050E0812CA9
:1013B000B0E0912C81E090E0F90173FCA59173FEFF
:1013C000A1918F017A2F9F01A11103C080E090E0CD
:1013D0007DC0AE3519F44115510559F1E92DF0E004
:1013E000E417F5073CF4AD3569F1AD3219F4BB23D0
:1013F00019F103C0B11101C08A2EE72FE695E695D9
:10140000E69586010E0F111DF801A72FA7708C011C
:1014100002C0000F111FAA95E2F7D801B081BA2BC4
:10142000B083781559F0781510F47F5FE6CF7150CE
:10143000E4CF9924939403C0B1E001C0B0E04F5FC2
:101440005F4FBACFBB2319F08E8180628E839110DB
:1014500003C09924939415C0F601CE018196208192
:1014600020952193E817F907D1F7F3CFE114F104A0
:1014700029F0D7018C93F70131967F01615001F17A
:10148000912CC50169A30E947F0669A197FD16C032
:10149000282F269526952695F601E20FF11D20812D
:1014A00030E0AC014770552702C0359527954A9525
:1014B000E2F720FDDBCFB5010E94FE0B911086CF35
:1014C000E114F10411F0D7011C92C801A196EDE0DE
:1014D0000C94990C4F925F927F928F929F92AF9251
:1014E000BF92CF92DF92EF92FF920F931F93CF9311
:1014F000DF931F92CDB7DEB78C012B017A01FC017F
:1015000017821682A12CF801D380F201D3FC8591B9
:10151000D3FE8191382F2F01882309F4FEC090E07B
:1015200039830E94A30B3981892B21F0C8010E94C5
:101530001509E9CF353241F4F201D3FC3591D3FEE0
:1015400031912F01353269F4C80139830E947F0639
:10155000398197FDE0C03817B1F2B8010E94FE0B47
:10156000DCC03A3241F4D3FC3591D3FE31912F01E6
:10157000BB24B39401C0B12C712C20ED230F2A3071
:1015800090F4FB2DF260BF2E672D70E080E090E0BC
:1015900040E20E94F508762EF201D3FC3591D3FE8D
:1015A00031912F01EACFB1FE03C0711003C0B5C065
:1015B00077247A94383619F03C3661F014C0F20181
:1015C000D3FC3591D3FE31912F01383661F4FB2DD8
:1015D000F860BF2E8B2D8460B82EF201D3FC3591BC
:1015E000D3FE31912F01332309F497C0632F70E0AC
:1015F00088E690E039830E94AB0B3981892B09F48E
:101600008CC0B0FC07C0F701C080D180C701029632
:101610007C0102C0C12CD12C3E3651F4F801468128
:10162000578160E070E02B2DC6010E94E9086BCF66
:101630003336A9F4B1FC02C077247394C8010E9428
:101640007F0697FD68C0C114D10429F0F60180839C
:10165000C60101966C017A947110F0CF58C03B35E9
:1016600059F49201A601672DC8010E94C2092C01FC
:10167000009709F04CC046C0C80139830E94150983
:10168000398197FD48C03F3671F128F4343639F17D
:10169000393681F12CC0333771F0353701F127C06D
:1016A000C114D10429F0F6018082C60101966C01B3
:1016B0007A94772071F0C8010E947F064C0197FD53
:1016C00008C00E94A30B892B59F3B801C4010E94E2
:1016D000FE0BC114D104D9F0F601108218C0FB2D05
:1016E000F062BF2E07C08B2D8061B82E03C09B2DEA
:1016F0009064B92E2B2DA601672DC8010E942E09DA
:10170000811105C0F8018381807329F406C0B0FC03
:10171000FACEA394F8CEAA2019F08A2D90E002C048
:101720008FEF9FEF0F90DF91CF911F910F91FF905F
:10173000EF90DF90CF90BF90AF909F908F907F9071
:101740005F904F9008959111D0C0803219F0895068
:101750008550D0F70895FC010590061621F0002071
:10176000D9F7C00108953197CF010895FC01059084
:10177000615070400110D8F7809590958E0F9F1F93
:101780000895FC016150704001900110D8F78095D8
:1017900090958E0F9F1F08950F931F93CF93DF9304
:1017A000182F092FEB018B8181FD03C08FEF9FEF75
:1017B00020C082FF10C04E815F812C813D81421785
:1017C00053077CF4E881F9819F012F5F3F4F3983F4
:1017D0002883108306C0E885F985812F0995892B18
:1017E00029F72E813F812F5F3F4F3F832E83812F2B
:1017F000902FDF91CF911F910F910895FB012381CD
:1018000020FF12C026FD10C08F3F3FEF930761F00D
:1018100082832F7D206423832681378121503109E3
:1018200037832683992708958FEF9FEF0895FA0154
:10183000AA27283051F1203181F1E8946F936E7F0F
:101840006E5F7F4F8F4F9F4FAF4FB1E03ED0B4E000
:101850003CD0670F781F891F9A1FA11D680F791F41
:101860008A1F911DA11D6A0F711D811D911DA11D52
:1018700020D009F468943F912AE0269F1124301962
:10188000305D3193DEF6CF010895462F4770405DFD
:101890004193B3E00FD0C9F7F6CF462F4F70405DAC
:1018A0004A3318F0495D31FD4052419302D0A9F707
:1018B000EACFB4E0A6959795879577956795BA9501
:1018C000C9F700976105710508959B01AC010A2EC7
:1018D00006945795479537952795BA95C9F7620F9E
:1018E000731F841F951FA01D0895992788270895A9
:1018F0002F923F924F925F926F927F928F929F9220
:10190000AF92BF92CF92DF92EF92FF920F931F930D
:10191000CF93DF93CDB7DEB7CA1BDB0B0FB6F894BE
:10192000DEBF0FBECDBF09942A88398848885F84FE
:101930006E847D848C849B84AA84B984C884DF806F
:10194000EE80FD800C811B81AA81B981CE0FD11D53
:101950000FB6F894DEBF0FBECDBFED010895F89429
:02196000FFCFB7
:1019620000000003000000005900600000000000B9
:101972000001000000000000600000000000000202
:101982000000000059000000000053656E736F7282
:101992002052656164696E6773203A2020436C6946
:1019A200664C203D2025642C20436C696652203D04
:1019B2002025642C2042756D70203D2025640D0A7F
:1019C20000526F626F742073746F70730D00526FE8
:1019D200626F74206D6F766573206261636B7761ED
:1019E20072640D00526F626F74206D6F76657320A2
:1019F20052696768740D0055445230203D202563BA
:101A02000D0A004175746F206D6F646520656E610B
:101A1200626C65640D00456E7465722076616C6956
:101A22006420646972656374696F6E2063686172B1
:101A3200616374657228662C622C6C2C722C732C78
:101A4200642C682900596F7520656E74657265642F
:101A520020696E707574206173203A2025632025F9
:101A620063256320256325630D0A00526F626F743C
:101A7200206D6F76657320666F72776172640D00F8
:101A8200526F626F74206D6F76657320726967683A
:101A9200740D00526F626F74206D6F766573206CE7
:101AA2006566740D00596F7520656E7465726564A4
:101AB20020696E707574206173203A2025630D0AC7
:101AC20000526F626F742053746F70730D004D611A
:101AD2006E75616C206D6F646520656E61626C6508
:101AE200640D00256420256400434D443A205B25A3
:101AF200735D0A0048656C6C6F20776F726C6421AD
:021B02000D00D4
:00000001FF
