:100000000C9434000C9451000C9451000C94510049
:100010000C9451000C9451000C9451000C9451001C
:100020000C9451000C9451000C9451000C9451000C
:100030000C9451000C9451000C9451000C945100FC
:100040000C9451000C9451000C947C050C945100BC
:100050000C9451000C9451000C9451000C945100DC
:100060000C9451000C94510011241FBECFEFD8E026
:10007000DEBFCDBF12E0A0E0B1E0E2EAF2E102C0F3
:1000800005900D92A639B107D9F712E0A6E9B2E0C2
:1000900001C01D92AC3DB107E1F70E94A2050C948E
:1000A0004F090C9400009091C00095FFFCCF809305
:1000B000C60008958091C00087FFFCCF8091C600E4
:1000C00008951092C50080E18093C400E0ECF0E058
:1000D00080818260808386E08093C20088E1809383
:1000E000C1000895ECE7F0E0808180648083EAE756
:1000F000F0E0808187688083089590917C008F7004
:10010000907F892B80937C0080917A00806480931B
:100110007A0080917A0086FDFCCF809178009091E2
:1001200079000895229A9AB198669AB917BC68BD69
:1001300094B5906894BD94B5906294BD94B5936065
:1001400094BD95B5926095BD8093B400E0EBF0E06E
:10015000808180628083808183608083E1EBF0E036
:100160008081826080838FEF90E0909387008093FE
:10017000860010928B0010928A00E0E8F0E0808107
:1001800080628083808182608083E1E8F0E080810A
:10019000886180838081826080830895229A2AB159
:1001A00028662AB967BD18BC24B5206824BD24B5CB
:1001B000206224BD24B5236024BD25B5226025BD61
:1001C0001092B400E0EBF0E02081206220832081D7
:1001D00023602083E1EBF0E02081226020832FEF79
:1001E00030E0309387002093860090938B008093BB
:1001F0008A00E0E8F0E08081806280838081826014
:100200008083E1E8F0E08081886180838081826082
:1002100080830895229A2AB128662AB917BC68BD3E
:1002200024B5206824BD24B5206224BD24B52360F4
:1002300024BD25B5226025BD1092B400E0EBF0E0AE
:10024000208120622083208123602083E1EBF0E085
:100250002081226020832FEF30E0309387002093AD
:10026000860090938B0080938A00E0E8F0E0808124
:1002700080628083808182608083E1E8F0E0808119
:10028000886180838081826080830895229A9AB1F8
:1002900098669AB967BD18BC94B5906894BD94B53A
:1002A000906294BD94B5936094BD95B5926095BDF0
:1002B0008093B400E0EBF0E08081806280838081F5
:1002C00083608083E1EBF0E08081826080838FEF48
:1002D00090E0909387008093860010928B0010929C
:1002E0008A00E0E8F0E08081806280838081826023
:1002F0008083E1E8F0E08081886180838081826092
:100300008083089522988AB187798AB9089520EA6E
:1003100036E8AC01429FC001439F900D529F900D63
:100320001124860F971F089585B193E0892785B919
:100330000895229A8AB188668AB9089522988AB166
:1003400087798AB9089522988AB187798AB98AE229
:1003500091E00E9473062FEF8FE99FE021508040CB
:100360009040E1F700C0000060EA70E080EA90E0B1
:100370000E94CE0087E391E00E9473062FEF83ED89
:1003800090E3215080409040E1F700C000002298A7
:100390008AB187798AB98AE291E00E9473062FEFC9
:1003A0008FE99FE0215080409040E1F700C00000BD
:1003B00060EA70E080EA90E00E9446018DE491E0FE
:1003C0000E9473062FEF8FE99FE0215080409040FC
:1003D000E1F700C0000022988AB187798AB98AE2E1
:1003E00091E00E9473062FEF8FE99FE0215080403B
:1003F0009040E1F700C000000895CF93DF932FEF06
:1004000030E742E0215030404040E1F700C00000BA
:1004100080917C00807F80937C0080917A00806452
:1004200080937A0080917A0086FDFCCFC09178009D
:10043000D09179008FEF90E722E0815090402040EA
:10044000E1F700C0000080917C00807F8160809394
:100450007C0080917A00806480937A0080917A0099
:1004600086FDFCCF80917800909179003FEF40E7C6
:1004700022E0315040402040E1F700C000002091D0
:100480007C00207F226020937C0020917A002064F1
:1004900020937A0020917A0026FDFCCF20917800ED
:1004A000309179003F932F939F938F93DF93CF9356
:1004B00080E691E09F938F930E9458068DB79EB778
:1004C00008960FB6F8949EBF0FBE8DBFC436D105F7
:1004D0001CF0DF91CF91089587E991E00E947306A7
:1004E000DF91CF910C94A301CF93DF9300D000D084
:1004F0001F92CDB7DEB781E090E09D838C83ECE95D
:10050000EE2EE1E0FE2EFAEEAF2EF1E0BF2E7724C4
:100510007A94A3E6CA2ED12CAFE9BFE01197F1F788
:1005200000C000008091C00087FD07C08C819D81C4
:10053000019791F30E94FD01EFCF2091C600022F99
:10054000112707FD10951F932F93FF92EF922B8396
:100550000E9458060F900F900F900F902B8121361C
:1005600009F444C191E0283609F4CAC081E03EE8AC
:10057000320F323008F480E0892391E0322F377F48
:10058000343609F4BBC0982399F0822F8B7F8236D2
:1005900079F00BEB11E01F930F930E9458068091A6
:1005A000D6029091D7020E941A060F900F90F3CFB7
:1005B000243609F49EC0283609F498C0263609F47A
:1005C000A1C0223609F48DC1223709F074C0809190
:1005D000D6029091D7022B830E941A061C018091AB
:1005E000D6029091D7020E941A069A83898380913D
:1005F000D6029091D7020E941A064C018091D60231
:100600009091D7020E941A062C015F928F939F92BD
:100610008F92BA81BF93E981EF933F922F921F93FC
:100620002B812F93BF92AF920E945806F0E38F1A4E
:1006300091089401220F331F880C991C880C991C77
:10064000880C991C280D391D80E3481A5108240D87
:10065000351D729EC001739E900D1124B6010E943B
:10066000F2059B0190E3291A3108A101440F551F9F
:10067000220C331C220C331C220C331C420D531D44
:1006800089819A81C097480F591F749EC001759E39
:10069000900D1124B6010E94F205CB01B9010E9410
:1006A000460185E292E00E9473060FB6F894DEBF21
:1006B0000FBECDBF31CF2C3609F49FC0233709F0D0
:1006C0002BCF1F932F93AAE4B2E0BF93AF930E9466
:1006D000580622988AB187798AB98AE291E00E9405
:1006E00073060F900F900F900F9016CF1D821C82F3
:1006F00013CFA1E0B0E0BD83AC830ECF90E043CF39
:1007000090E034CF8091D6029091D7022B830E9443
:100710001A062C018091D6029091D7020E941A06E7
:100720009A8389838091D6029091D7020E941A06FB
:100730004C018091D6029091D7020E941A061C01AA
:100740003F928F939F928F92BA81BF93E981EF93EB
:100750005F924F921F932B812F93BF92AF920E9473
:100760005806F0E38F1A91089401220F331F880C6A
:10077000991C880C991C880C991C280D391D80E344
:10078000281A3108220D331D729EC001739E900DF0
:100790001124B6010E94F2059B0190E3491A510809
:1007A000A201440F551F440C551C440C551C440C0D
:1007B000551C440D551D89819A81C097480F591FBA
:1007C000749EC001759E900D1124B6010E94F20521
:1007D000CB01B9010E94920080E192E00E94730671
:1007E0000FB6F894DEBF0FBECDBF96CE88EA91E07B
:1007F0000E9473060E94E504CCCE8091D6029091AF
:10080000D7022B830E941A061C018091D602909178
:10081000D7020E941A069A8389838091D60290910A
:10082000D7020E941A064C018091D6029091D702FD
:100830000E941A062C015F928F939F928F92BA8129
:10084000BF93E981EF933F922F921F932B812F93B8
:10085000BF92AF920E945806F0E38F1A910894015C
:10086000220F331F880C991C880C991C880C991C2A
:10087000280D391D80E3481A5108240D351D729E3C
:10088000C001739E900D1124B6010E94F2059B01D8
:1008900090E3291A3108A101440F551F220C331C83
:1008A000220C331C220C331C420D531D89819A816A
:1008B000C097480F591F749EC001759E900D11245A
:1008C000B6010E94F205CB01B9010E940A0188E33A
:1008D00092E00E9473060FB6F894DEBF0FBECDBF44
:1008E0001BCE8091D6029091D7022B830E941A06CC
:1008F0001C018091D6029091D7020E941A069A8319
:1009000089838091D6029091D7020E941A064C01E9
:100910008091D6029091D7020E941A062C015F9214
:100920008F939F928F92BA81BF93E981EF933F9209
:100930002F921F932B812F93BF92AF920E94580644
:10094000F0E38F1A91089401220F331F880C991C31
:10095000880C991C880C991C280D391D80E3481AB5
:100960005108240D351D729EC001739E900D1124F7
:10097000B6010E94F2059B0190E3291A3108A101FA
:10098000440F551F220C331C220C331C220C331C29
:10099000420D531D89819A81C097480F591F749E3B
:1009A000C001759E900D1124B6010E94F205CB0185
:1009B000B9010E94CE0087E391E00E9473060FB652
:1009C000F894DEBF0FBECDBFA7CD8091D602909127
:1009D000D7020E941A06833741F08D36B1F783E7BC
:1009E00092E00E9473060E94740222988AB187796D
:1009F0008AB986E692E00E947306E7CFAF92BF9273
:100A0000CF92DF92EF92FF920F931F93CF93DF93DA
:100A10005C017B0180E2F5018083F1E0EF1AF108CF
:100A20008501CFEFDFEF0DC0219668018091D602DE
:100A30009091D7020E941A06F80181938F018137A5
:100A400031F0CE15DF0584F36501CC0EDD1EF60115
:100A50001082CE01DF91CF911F910F91FF90EF9007
:100A6000DF90CF90BF90AF900895CF93C82F85B1FE
:100A700093E0892785B98C2F992787FD90950E944F
:100A80006C06CB36B9F0C43611F15CF0C337C1F057
:100A9000C737A1F46FEF70E08FEF90E0CF910C9427
:100AA0009200C13659F46FEF70E08FEF90E0CF9174
:100AB0000C940A0122988AB187798AB9CF91089556
:100AC0006FEF70E08FEF90E0CF910C94CE006FEF5E
:100AD00070E08FEF90E0CF910C94460106C08091BA
:100AE000D6029091D7020E941A068091C00087FD1D
:100AF000F6CF08950C94FD011F920F920FB60F923E
:100B000011242F933F934F935F936F937F938F9312
:100B10009F93AF93BF93EF93FF938091C6000E9482
:100B20003505FF91EF91BF91AF919F918F917F918B
:100B30006F915F914F913F912F910F900FBE0F904A
:100B40001F9018951092C50080E18093C400809199
:100B5000C00082608093C00086E08093C20088E17C
:100B60008093C1008CE191E09093D9028093D802E8
:100B70008EE091E09093D7028093D60288E892E0CD
:100B80000E94730680917C00806480937C00809139
:100B90007A00876880937A0022988AB187798AB927
:100BA00084B1836084B9289A2998539A229A559AD5
:100BB000569A8091C10088698093C1007894809191
:100BC000C00087FF0AC08091D6029091D7020E9490
:100BD0001A068091C00087FDF6CF0E94FD010E9499
:100BE000FD01FBCF97FB072E16F4009407D077FD8D
:100BF00009D00E94060607FC05D03EF49095819529
:100C00009F4F0895709561957F4F0895AA1BBB1B58
:100C100051E107C0AA1FBB1FA617B70710F0A61BFC
:100C2000B70B881F991F5A95A9F780959095BC011D
:100C3000CD010895CF93DF93EC012B8120FF33C0CA
:100C400026FF0AC02F7B2B838E819F8101969F8375
:100C50008E838A8190E029C022FF0FC0E881F9814C
:100C60008081992787FD9095009719F420622B8346
:100C70001AC03196F983E8830EC0EA85FB85099591
:100C800097FF09C02B81019611F480E101C080E239
:100C9000822B8B8308C02E813F812F5F3F4F3F8384
:100CA0002E83992702C08FEF9FEFDF91CF91089598
:100CB000A0E0B0E0EEE5F6E00C942809FE013596E0
:100CC00061917191AF018091D8029091D9020E94F7
:100CD000A006E2E00C9444096091D8027091D90218
:100CE0000E94880808950F931F93CF93DF93E0919C
:100CF000D802F091D902238121FF1BC0EC0100E052
:100D000010E089916091D8027091D902DB011896A8
:100D1000ED91FC911997882331F00995892B89F37E
:100D20000FEF1FEFEECF8AE00995892B11F4C80170
:100D300002C08FEF9FEFDF91CF911F910F91089528
:100D4000ACE0B0E0E6EAF6E00C9418097C016B0137
:100D50008A01FC0117821682838181FFBDC1CE0109
:100D600001964C01F7019381F60193FD859193FF64
:100D700081916F01882309F4ABC1853239F493FD69
:100D8000859193FF81916F01853229F4B70190E03D
:100D90000E948808E7CF512C312C20E02032A0F4AB
:100DA0008B3269F030F4803259F0833269F420617B
:100DB0002CC08D3239F0803339F4216026C0226096
:100DC000246023C0286021C027FD27C030ED380FE4
:100DD0003A3078F426FF06C0FAE05F9E300D112409
:100DE000532E13C08AE0389E300D1124332E20621A
:100DF0000CC08E3221F426FD6BC1206406C08C36F7
:100E000011F4206802C0883641F4F60193FD859103
:100E100093FF81916F018111C1CF982F9F7D9554D0
:100E2000933028F40C5F1F4FFFE3F9830DC0833626
:100E300031F0833771F0833509F05BC022C0F801CF
:100E4000808189830E5F1F4F44244394512C5401A9
:100E500015C03801F2E06F0E711CF801A080B1805E
:100E600026FF03C0652D70E002C06FEF7FEFC50164
:100E70002C870E947D082C0183012C852F77222E40
:100E800017C03801F2E06F0E711CF801A080B1802C
:100E900026FF03C0652D70E002C06FEF7FEFC50134
:100EA0002C870E9472082C012C852068222E830139
:100EB00023FC1BC0832D90E048165906B0F4B701FF
:100EC00080E290E00E9488083A94F4CFF50127FC74
:100ED000859127FE81915F01B70190E00E9488080B
:100EE00031103A94F1E04F1A51084114510471F74E
:100EF000E5C0843611F0893639F5F80127FF07C0BF
:100F000060817181828193810C5F1F4F08C0608175
:100F10007181882777FD8095982F0E5F1F4F2F7660
:100F2000B22E97FF09C090958095709561957F4F7F
:100F30008F4F9F4F2068B22E2AE030E0A4010E941C
:100F4000BA08A82EA81844C0853729F42F7EB22EDF
:100F50002AE030E025C0F22FF97FBF2E8F36C1F096
:100F600018F4883579F0B4C0803719F0883721F04B
:100F7000AFC02F2F2061B22EB4FE0DC08B2D846028
:100F8000B82E09C024FF0AC09F2F9660B92E06C054
:100F900028E030E005C020E130E002C020E132E08E
:100FA000F801B7FE07C060817181828193810C5F77
:100FB0001F4F06C06081718180E090E00E5F1F4F7F
:100FC000A4010E94BA08A82EA818FB2DFF77BF2EF7
:100FD000B6FE0BC02B2D2E7FA51450F4B4FE0AC014
:100FE000B2FC08C02B2D2E7E05C07A2C2B2D03C001
:100FF0007A2C01C0752C24FF0DC0FE01EA0DF11DF5
:101000008081803311F4297E09C022FF06C07394C9
:10101000739404C0822F867809F0739423FD13C063
:1010200020FF06C05A2C731418F4530C5718732C55
:10103000731468F4B70180E290E02C870E9488085E
:1010400073942C85F5CF731410F4371801C0312C2C
:1010500024FF12C0B70180E390E02C870E9488082B
:101060002C8522FF17C021FF03C088E590E002C055
:1010700088E790E0B7010CC0822F867859F021FDF7
:1010800002C080E201C08BE227FD8DE2B70190E053
:101090000E948808A51438F4B70180E390E00E940C
:1010A00088085A94F7CFAA94F401EA0DF11D8081C3
:1010B000B70190E00E948808A110F5CF332009F411
:1010C00051CEB70180E290E00E9488083A94F6CFB2
:1010D000F7018681978102C08FEF9FEF2C96E2E1A6
:1010E0000C943409FC010590615070400110D8F750
:1010F000809590958E0F9F1F0895FC016150704060
:1011000001900110D8F7809590958E0F9F1F08953C
:101110000F931F93CF93DF93182F092FEB018B8130
:1011200081FD03C08FEF9FEF20C082FF10C04E8172
:101130005F812C813D81421753077CF4E881F9815E
:101140009F012F5F3F4F39832883108306C0E885B6
:10115000F985812F0995892B29F72E813F812F5FF2
:101160003F4F3F832E83812F902FDF91CF911F918F
:101170000F910895FA01AA27283051F1203181F109
:10118000E8946F936E7F6E5F7F4F8F4F9F4FAF4F8F
:10119000B1E03ED0B4E03CD0670F781F891F9A1FA2
:1011A000A11D680F791F8A1F911DA11D6A0F711D56
:1011B000811D911DA11D20D009F468943F912AE062
:1011C000269F11243019305D3193DEF6CF0108954A
:1011D000462F4770405D4193B3E00FD0C9F7F6CF7B
:1011E000462F4F70405D4A3318F0495D31FD405243
:1011F000419302D0A9F7EACFB4E0A69597958795D9
:1012000077956795BA95C9F70097610571050895B7
:101210009B01AC010A2E0694579547953795279563
:10122000BA95C9F7620F731F841F951FA01D0895FB
:101230002F923F924F925F926F927F928F929F92E6
:10124000AF92BF92CF92DF92EF92FF920F931F93D4
:10125000CF93DF93CDB7DEB7CA1BDB0B0FB6F89485
:10126000DEBF0FBECDBF09942A88398848885F84C5
:101270006E847D848C849B84AA84B984C884DF8036
:10128000EE80FD800C811B81AA81B981CE0FD11D1A
:101290000FB6F894DEBF0FBECDBFED010895F894F0
:0212A000FFCF7E
:1012A200000000030000000053005A00000000008C
:1012B20000010000000000005A00000000000002CF
:1012C20000000000530000000000526F626F7420A3
:1012D20073746F70730D00526F626F74206D6F764E
:1012E2006573206261636B776172640D00526F6295
:1012F2006F74206D6F7665732052696768740D0094
:1013020053656E736F722052656164696E677320F4
:101312003A2020436C69664C203D2025642C2043F2
:101322006C696652203D2025642C2042756D702028
:101332003D2025640D0A00453A434C005544523085
:10134200203D2025630D0A004175746F206D6F6486
:101352006520656E61626C65640D00456E74657230
:101362002076616C696420646972656374696F6E6A
:101372002063686172616374657228662C622C6CEA
:101382002C722C732C642C682900596F7520656EA1
:10139200746572656420696E707574206173203A99
:1013A200202563202563256320256325630D0A001C
:1013B200526F626F74206D6F76657320666F7277FD
:1013C2006172640D00526F626F74206D6F76657387
:1013D2002072696768740D00526F626F74206D6FBE
:1013E200766573206C6566740D00596F7520656EA5
:1013F200746572656420696E707574206173203A39
:101402002025630D0A00526F626F742053746F704F
:10141200730D004D616E75616C206D6F64652065A2
:101422006E61626C65640D0048656C6C6F20776F4D
:06143200726C64210D0044
:00000001FF
