:100000000C9434000C9451000C9451000C94510049
:100010000C9451000C9451000C9451000C9451001C
:100020000C9451000C9451000C9451000C9451000C
:100030000C9451000C9451000C9451000C945100FC
:100040000C9451000C9451000C9419050C9451001F
:100050000C9451000C9451000C9451000C945100DC
:100060000C9451000C94510011241FBECFEFD8E026
:10007000DEBFCDBF12E0A0E0B1E0E0E0F2E102C0FF
:1000800005900D92A635B107D9F712E0A6E5B2E0CA
:1000900001C01D92A03AB107E1F70E9452050C94ED
:1000A000FE080C9400009091C00095FFFCCF809357
:1000B000C60008958091C00087FFFCCF8091C600E4
:1000C00008951092C50080E18093C400E0ECF0E058
:1000D00080818260808386E08093C20088E1809383
:1000E000C1000895ECE7F0E0808180648083EAE756
:1000F000F0E0808187688083089590917C008F7004
:10010000907F892B80937C0080917A00806480931B
:100110007A0080917A0086FDFCCF809178009091E2
:1001200079000895229A9AB198669AB917BC68BD69
:1001300094B5906894BD94B5906294BD94B5936065
:1001400094BD95B5926095BD8093B400E0EBF0E06E
:10015000808180628083808183608083E1EBF0E036
:100160008081826080838FEF90E0909387008093FE
:10017000860010928B0010928A00E0E8F0E0808107
:1001800080628083808182608083E1E8F0E080810A
:10019000886180838081826080830895229A2AB159
:1001A00028662AB967BD18BC24B5206824BD24B5CB
:1001B000206224BD24B5236024BD25B5226025BD61
:1001C0001092B400E0EBF0E02081206220832081D7
:1001D00023602083E1EBF0E02081226020832FEF79
:1001E00030E0309387002093860090938B008093BB
:1001F0008A00E0E8F0E08081806280838081826014
:100200008083E1E8F0E08081886180838081826082
:1002100080830895229A2AB128662AB917BC68BD3E
:1002200024B5206824BD24B5206224BD24B52360F4
:1002300024BD25B5226025BD1092B400E0EBF0E0AE
:10024000208120622083208123602083E1EBF0E085
:100250002081226020832FEF30E0309387002093AD
:10026000860090938B0080938A00E0E8F0E0808124
:1002700080628083808182608083E1E8F0E0808119
:10028000886180838081826080830895229A9AB1F8
:1002900098669AB967BD18BC94B5906894BD94B53A
:1002A000906294BD94B5936094BD95B5926095BDF0
:1002B0008093B400E0EBF0E08081806280838081F5
:1002C00083608083E1EBF0E08081826080838FEF48
:1002D00090E0909387008093860010928B0010929C
:1002E0008A00E0E8F0E08081806280838081826023
:1002F0008083E1E8F0E08081886180838081826092
:100300008083089522988AB187798AB9089585B142
:1003100093E0892785B90895229A8AB188668AB9B7
:10032000089522988AB187798AB9089522988AB166
:1003300087798AB92FEF83EC99E021508040904073
:10034000E1F700C0000060EA70E080EA90E00E94FF
:10035000CE002FEF83ED90E3215080409040E1F7F5
:1003600000C0000022988AB187798AB92FEF83EC08
:1003700099E0215080409040E1F700C0000060EA21
:1003800070E080EA90E00E9446012FEF89E698E154
:10039000215080409040E1F700C0000022988AB1CF
:1003A00087798AB92FEF83EC99E021508040904003
:1003B000E1F700C00000089580917C00807F809369
:1003C0007C0080917A00806480937A0080917A002A
:1003D00086FDFCCF809178009091790020917C007F
:1003E000207F216020937C0020917A00206420935C
:1003F0007A0020917A0026FDFCCF20917800309180
:10040000790020917C00207F226020937C00209145
:100410007A00206420937A0020917A0026FDFCCF98
:100420002091780030917900843691050CF0089580
:100430008AE291E00E9422060C949601CF93DF930A
:1004400000D000D01F92CDB7DEB781E090E09D8351
:100450008C83EFE2EE2EE1E0FE2EFDE7AF2EF1E021
:10046000BF2E77247A94A3E6CA2ED12CAFE9BFE041
:100470001197F1F700C000008091C00087FD07C010
:100480008C819D81019791F30E94DC01EFCF209137
:10049000C600022F112707FD10951F932F93FF927F
:1004A000EF922B830E940E060F900F900F900F90EB
:1004B0002B81213609F444C191E0283609F4CAC0E1
:1004C00081E03EE8320F323008F480E0892391E089
:1004D000322F377F343609F4BBC0982399F0822F2E
:1004E0008B7F823679F00EE411E01F930F930E9408
:1004F0000E0680919A0290919B020E94D0050F9067
:100500000F90F3CF243609F49EC0283609F498C022
:10051000263609F4A1C0223609F48DC1223709F02C
:1005200074C080919A0290919B022B830E94D00507
:100530001C0180919A0290919B020E94D0059A839F
:10054000898380919A0290919B020E94D0054C0170
:1005500080919A0290919B020E94D0052C015F929B
:100560008F939F928F92BA81BF93E981EF933F92CD
:100570002F921F932B812F93BF92AF920E940E0652
:10058000F0E38F1A91089401220F331F880C991CF5
:10059000880C991C880C991C280D391D80E3481A79
:1005A0005108240D351D729EC001739E900D1124BB
:1005B000B6010E94A8059B0190E3291A3108A10108
:1005C000440F551F220C331C220C331C220C331CED
:1005D000420D531D89819A81C097480F591F749EFF
:1005E000C001759E900D1124B6010E94A805CB0193
:1005F000B9010E9446018EEC91E00E9422060FB6DE
:10060000F894DEBF0FBECDBF31CF2C3609F49FC0AA
:10061000233709F02BCF1F932F93A3EFB1E0BF93A4
:10062000AF930E940E0622988AB187798AB98FE02B
:1006300092E00E9422060F900F900F900F9016CF1D
:100640001D821C8213CFA1E0B0E0BD83AC830ECF2E
:1006500090E043CF90E034CF80919A0290919B023A
:100660002B830E94D0052C0180919A0290919B02CD
:100670000E94D0059A83898380919A0290919B026F
:100680000E94D0054C0180919A0290919B020E9499
:10069000D0051C013F928F939F928F92BA81BF9396
:1006A000E981EF935F924F921F932B812F93BF921B
:1006B000AF920E940E06F0E38F1A91089401220F68
:1006C000331F880C991C880C991C880C991C280DC8
:1006D000391D80E3281A3108220D331D729EC00196
:1006E000739E900D1124B6010E94A8059B0190E312
:1006F000491A5108A201440F551F440C551C440CC3
:10070000551C440C551C440D551D89819A81C09778
:10071000480F591F749EC001759E900D1124B6019B
:100720000E94A805CB01B9010E94920083EA91E0E2
:100730000E9422060FB6F894DEBF0FBECDBF96CE44
:100740008BE391E00E9422060E948F04CCCE809120
:100750009A0290919B022B830E94D0051C018091EC
:100760009A0290919B020E94D0059A83898380917E
:100770009A0290919B020E94D0054C0180919A02AE
:1007800090919B020E94D0052C015F928F939F92C3
:100790008F92BA81BF93E981EF933F922F921F937B
:1007A0002B812F93BF92AF920E940E06F0E38F1A17
:1007B00091089401220F331F880C991C880C991CF6
:1007C000880C991C280D391D80E3481A5108240D06
:1007D000351D729EC001739E900D1124B6010E94BA
:1007E000A8059B0190E3291A3108A101440F551F68
:1007F000220C331C220C331C220C331C420D531DC3
:1008000089819A81C097480F591F749EC001759EB7
:10081000900D1124B6010E94A805CB01B9010E94D8
:100820000A0181EE91E00E9422060FB6F894DEBF25
:100830000FBECDBF1BCE80919A0290919B022B835D
:100840000E94D0051C0180919A0290919B020E9407
:10085000D0059A83898380919A0290919B020E948D
:10086000D0054C0180919A0290919B020E94D00584
:100870002C015F928F939F928F92BA81BF93E981EF
:10088000EF933F922F921F932B812F93BF92AF92A2
:100890000E940E06F0E38F1A91089401220F331F75
:1008A000880C991C880C991C880C991C280D391DE2
:1008B00080E3481A5108240D351D729EC001739EB5
:1008C000900D1124B6010E94A8059B0190E3291AFE
:1008D0003108A101440F551F220C331C220C331C7C
:1008E000220C331C420D531D89819A81C097480FF9
:1008F000591F749EC001759E900D1124B6010E946F
:10090000A805CB01B9010E94CE0088EB91E00E94BE
:1009100022060FB6F894DEBF0FBECDBFA7CD8091E3
:100920009A0290919B020E94D005833741F08D3648
:10093000B1F789E292E00E9422060E941E022298EC
:100940008AB187798AB98CE192E00E942206E7CFCA
:10095000AF92BF92CF92DF92EF92FF920F931F93CD
:10096000CF93DF935C017B0180E2F5018083F1E0AE
:10097000EF1AF1088501CFEFDFEF0DC02196680176
:1009800080919A0290919B020E94D005F801819378
:100990008F01813731F0CE15DF0584F36501CC0E70
:1009A000DD1EF6011082CE01DF91CF911F910F91D4
:1009B000FF90EF90DF90CF90BF90AF90089585B1FA
:1009C00093E0892785B98AE592E09F938F938EE320
:1009D00092E09F938F930E940E060F900F900F90BE
:1009E0000F9080915A028B3609F0089522988AB1AF
:1009F00087798AB9089506C080919A0290919B02E6
:100A00000E94D0058091C00087FDF6CF08958091A7
:100A1000560290915702892B51F00E94DF041092E8
:100A200057021092560210925902109258020C94DA
:100A3000DC011F920F920FB60F9211242F933F9358
:100A40004F938F939F93EF93FF934091C6004A304B
:100A5000D9F080915802909159029C012F5F3F4F2D
:100A60003093590220935802FC01E65AFD4F40830F
:100A7000FF91EF919F918F914F913F912F910F9007
:100A80000FBE0F901F901895E0915802F0915902F7
:100A9000E65AFD4F108281E090E0909357028093D8
:100AA0005602E6CF1092C50080E18093C400809189
:100AB000C00082608093C00086E08093C20088E11D
:100AC0008093C1008CE191E090939D0280939C0201
:100AD0008EE091E090939B0280939A0287E492E0EB
:100AE0000E94220680917C00806480937C0080912B
:100AF0007A00876880937A0022988AB187798AB9C8
:100B000084B1836084B9289A2998539A229A559A75
:100B1000569A8091C10088698093C1007894809131
:100B2000C00087FF0AC080919A0290919B020E94A8
:100B3000D0058091C00087FDF6CF10925902109227
:100B4000580210925702109256020E940705FDCFDC
:100B500097FB072E16F4009407D077FD09D00E946A
:100B6000BC0507FC05D03EF4909581959F4F0895F4
:100B7000709561957F4F0895AA1BBB1B51E107C07B
:100B8000AA1FBB1FA617B70710F0A61BB70B881F1D
:100B9000991F5A95A9F780959095BC01CD010895AC
:100BA000CF93DF93EC012B8120FF33C026FF0AC0D7
:100BB0002F7B2B838E819F8101969F838E838A81D9
:100BC00090E029C022FF0FC0E881F9818081992738
:100BD00087FD9095009719F420622B831AC03196F7
:100BE000F983E8830EC0EA85FB85099597FF09C064
:100BF0002B81019611F480E101C080E2822B8B836E
:100C000008C02E813F812F5F3F4F3F832E8399275E
:100C100002C08FEF9FEFDF91CF910895A0E0B0E089
:100C2000E4E1F6E00C94D708FE01359661917191EC
:100C3000AF0180919C0290919D020E944F06E2E0DC
:100C40000C94F3080F931F93CF93DF93E0919C02D2
:100C5000F0919D02238121FF1BC0EC0100E010E018
:100C6000899160919C0270919D02DB011896ED9133
:100C7000FC911997882331F00995892B89F30FEF9F
:100C80001FEFEECF8AE00995892B11F4C80102C04D
:100C90008FEF9FEFDF91CF911F910F910895ACE0FF
:100CA000B0E0E5E5F6E00C94C7087C016B018A0131
:100CB000FC0117821682838181FFBDC1CE0101969E
:100CC0004C01F7019381F60193FD859193FF81918A
:100CD0006F01882309F4ABC1853239F493FD859106
:100CE00093FF81916F01853229F4B70190E00E9452
:100CF0003708E7CF512C312C20E02032A0F48B3282
:100D000069F030F4803259F0833269F420612CC0EC
:100D10008D3239F0803339F4216026C0226024609E
:100D200023C0286021C027FD27C030ED380F3A309E
:100D300078F426FF06C0FAE05F9E300D1124532E92
:100D400013C08AE0389E300D1124332E20620CC06F
:100D50008E3221F426FD6BC1206406C08C3611F45E
:100D6000206802C0883641F4F60193FD859193FF17
:100D700081916F018111C1CF982F9F7D9554933040
:100D800028F40C5F1F4FFFE3F9830DC0833631F069
:100D9000833771F0833509F05BC022C0F801808190
:100DA00089830E5F1F4F44244394512C540115C076
:100DB0003801F2E06F0E711CF801A080B18026FFAF
:100DC00003C0652D70E002C06FEF7FEFC5012C8777
:100DD0000E942C082C0183012C852F77222E17C00E
:100DE0003801F2E06F0E711CF801A080B18026FF7F
:100DF00003C0652D70E002C06FEF7FEFC5012C8747
:100E00000E9421082C012C852068222E830123FCBE
:100E10001BC0832D90E048165906B0F4B70180E25C
:100E200090E00E9437083A94F4CFF50127FC8591B1
:100E300027FE81915F01B70190E00E9437083110D1
:100E40003A94F1E04F1A51084114510471F7E5C08A
:100E5000843611F0893639F5F80127FF07C0608123
:100E60007181828193810C5F1F4F08C06081718105
:100E7000882777FD8095982F0E5F1F4F2F76B22E13
:100E800097FF09C090958095709561957F4F8F4F22
:100E90009F4F2068B22E2AE030E0A4010E9469082A
:100EA000A82EA81844C0853729F42F7EB22E2AE038
:100EB00030E025C0F22FF97FBF2E8F36C1F018F435
:100EC000883579F0B4C0803719F0883721F0AFC089
:100ED0002F2F2061B22EB4FE0DC08B2D8460B82E52
:100EE00009C024FF0AC09F2F9660B92E06C028E0D3
:100EF00030E005C020E130E002C020E132E0F8013E
:100F0000B7FE07C060817181828193810C5F1F4FA2
:100F100006C06081718180E090E00E5F1F4FA401E8
:100F20000E946908A82EA818FB2DFF77BF2EB6FED9
:100F30000BC02B2D2E7FA51450F4B4FE0AC0B2FCBA
:100F400008C02B2D2E7E05C07A2C2B2D03C07A2CA9
:100F500001C0752C24FF0DC0FE01EA0DF11D80813A
:100F6000803311F4297E09C022FF06C07394739464
:100F700004C0822F867809F0739423FD13C020FFEC
:100F800006C05A2C731418F4530C5718732C73148E
:100F900068F4B70180E290E02C870E9437087394D0
:100FA0002C85F5CF731410F4371801C0312C24FFB1
:100FB00012C0B70180E390E02C870E9437082C858F
:100FC00022FF17C021FF03C088E590E002C088E738
:100FD00090E0B7010CC0822F867859F021FD02C045
:100FE00080E201C08BE227FD8DE2B70190E00E9414
:100FF0003708A51438F4B70180E390E00E94370861
:101000005A94F7CFAA94F401EA0DF11D8081B7013B
:1010100090E00E943708A110F5CF332009F451CE9B
:10102000B70180E290E00E9437083A94F6CFF701CA
:101030008681978102C08FEF9FEF2C96E2E10C949E
:10104000E308FC010590615070400110D8F78095CD
:1010500090958E0F9F1F0895FC0161507040019084
:101060000110D8F7809590958E0F9F1F08950F93CC
:101070001F93CF93DF93182F092FEB018B8181FDF5
:1010800003C08FEF9FEF20C082FF10C04E815F81B1
:101090002C813D81421753077CF4E881F9819F013F
:1010A0002F5F3F4F39832883108306C0E885F98579
:1010B000812F0995892B29F72E813F812F5F3F4F83
:1010C0003F832E83812F902FDF91CF911F910F911E
:1010D0000895FA01AA27283051F1203181F1E894CE
:1010E0006F936E7F6E5F7F4F8F4F9F4FAF4FB1E01B
:1010F0003ED0B4E03CD0670F781F891F9A1FA11D16
:10110000680F791F8A1F911DA11D6A0F711D811D16
:10111000911DA11D20D009F468943F912AE0269FDB
:1011200011243019305D3193DEF6CF010895462F3A
:101130004770405D4193B3E00FD0C9F7F6CF462F1B
:101140004F70405D4A3318F0495D31FD4052419384
:1011500002D0A9F7EACFB4E0A69597958795779541
:101160006795BA95C9F700976105710508959B01C8
:10117000AC010A2E06945795479537952795BA9551
:10118000C9F7620F731F841F951FA01D08952F922A
:101190003F924F925F926F927F928F929F92AF9207
:1011A000BF92CF92DF92EF92FF920F931F93CF9354
:1011B000DF93CDB7DEB7CA1BDB0B0FB6F894DEBFEB
:1011C0000FBECDBF09942A88398848885F846E8411
:1011D0007D848C849B84AA84B984C884DF80EE805B
:1011E000FD800C811B81AA81B981CE0FD11D0FB664
:1011F000F894DEBF0FBECDBFED010895F894FFCF88
:10120000000000030000000053005A00000000002E
:1012100000010000000000005A0000000000000271
:1012200000000000530000000000453A434C005508
:10123000445230203D2025630D0A004175746F2013
:101240006D6F646520656E61626C65640D00456E4E
:101250007465722076616C69642064697265637478
:10126000696F6E2063686172616374657228662CB1
:10127000622C6C2C722C732C642C682900596F75AD
:1012800020656E746572656420696E707574206186
:1012900073203A2025632025632563202563256379
:1012A0000D0A00526F626F74206D6F766573206651
:1012B0006F72776172640D00526F626F74206D6F90
:1012C000766573206261636B776172640D00526FA3
:1012D000626F74206D6F7665732072696768740D34
:1012E00000526F626F74206D6F766573206C656657
:1012F000740D00596F7520656E74657265642069A0
:101300006E707574206173203A2025630D0A0052B7
:101310006F626F742073746F70730D00526F626F21
:10132000742053746F70730D004D616E75616C2085
:101330006D6F646520656E61626C65640D00434D80
:10134000443A2025730A0048656C6C6F20776F72F1
:061350006C64210D000099
:00000001FF
