:100000000C943A000C9457000C9457000C94570031
:100010000C9457000C9457000C9457000C94570004
:100020000C9457000C9457000C9457000C945700F4
:100030000C9457000C9457000C9457000C945700E4
:100040000C9457000C9457000C949A050C9457008C
:100050000C9457000C9457000C9457000C945700C4
:100060000C9457000C9457006364696E6F7073753D
:1000700078585B0011241FBECFEFD8E0DEBFCDBFA4
:1000800012E0A0E0B1E0E6E0F9E102C005900D92D7
:10009000A237B107D9F712E0A2E7B2E001C01D9282
:1000A000AC3BB107E1F70E94D3050C94810C0C9492
:1000B00000009091C00095FFFCCF8093C60008958A
:1000C0008091C00087FFFCCF8091C60008951092F8
:1000D000C50080E18093C400E0ECF0E080818260A4
:1000E000808386E08093C20088E18093C1000895F8
:1000F000ECE7F0E0808180648083EAE7F0E08081D3
:1001000087688083089590917C008F70907F892B01
:1001100080937C0080917A00806480937A00809143
:100120007A0086FDFCCF8091780090917900089547
:10013000229A9AB198669AB917BC68BD94B590682E
:1001400094BD94B5906294BD94B5936094BD95B5FB
:10015000926095BD8093B400E0EBF0E08081806216
:100160008083808183608083E1EBF0E08081826026
:1001700080838FEF90E090938700809386001092A9
:100180008B0010928A00E0E8F0E08081806280833A
:10019000808182608083E1E8F0E0808188618083F3
:1001A0008081826080830895229A2AB128662AB9C4
:1001B00067BD18BC24B5206824BD24B5206224BDC9
:1001C00024B5236024BD25B5226025BD1092B4005E
:1001D000E0EBF0E0208120622083208123602083F7
:1001E000E1EBF0E02081226020832FEF30E03093BC
:1001F00087002093860090938B0080938A00E0E82C
:10020000F0E0808180628083808182608083E1E889
:10021000F0E080818861808380818260808308959E
:10022000229A2AB128662AB917BC68BD24B520686D
:1002300024BD24B5206224BD24B5236024BD25B58A
:10024000226025BD1092B400E0EBF0E02081206236
:100250002083208123602083E1EBF0E02081226075
:1002600020832FEF30E03093870020938600909317
:100270008B0080938A00E0E8F0E0808180628083D8
:10028000808182608083E1E8F0E080818861808302
:100290008081826080830895229A9AB198669AB983
:1002A00067BD18BC94B5906894BD94B5906294BD38
:1002B00094B5936094BD95B5926095BD8093B4005C
:1002C000E0EBF0E0808180628083808183608083C6
:1002D000E1EBF0E08081826080838FEF90E090938B
:1002E00087008093860010928B0010928A00E0E8CD
:1002F000F0E0808180628083808182608083E1E899
:10030000F0E08081886180838081826080830895AD
:1003100022988AB187798AB9089585B193E08927AF
:1003200085B90895229A8AB188668AB90895229873
:100330008AB187798AB9089522988AB187798AB96A
:100340002FEF83EC99E0215080409040E1F700C00E
:10035000000060912A0170912B0180912C019091F5
:100360002D010E94D4002FEF89E698E121508040B2
:100370009040E1F700C0000022988AB187798AB9DD
:100380002FEF83EC99E0215080409040E1F700C0CE
:1003900000008EE291E00C94A30680917C00807FA7
:1003A00080937C0080917A00806480937A008091B1
:1003B0007A0086FDFCCF80917800909179002091A1
:1003C0007C00207F216020937C0020917A002064B3
:1003D00020937A0020917A0026FDFCCF20917800AE
:1003E0003091790040917C00407F426040937C00D6
:1003F00040917A00406440937A0040917A0046FD33
:10040000FCCF409178005091790060917C00607F32
:10041000636060937C0060917A00606460937A000E
:1004200060917A0066FDFCCF609178007091790050
:100430008436910554F024363105CCF0443651050C
:1004400054F06C3271406CF4089581E391E00E94A5
:10045000A3060C949C018BE391E00E94A3060C94EC
:100460009C018FE391E00E94A3060C949C0186E31B
:1004700091E00E94A3060C949C01CF93DF9300D0DF
:1004800000D01F92CDB7DEB781E090E09D838C83D2
:10049000E5E4EE2EE1E0FE2EF3E9AF2EF1E0BF2E13
:1004A00077247A94A3E6CA2ED12CAFE9BFE0119746
:1004B000F1F700C000008091C00087FD07C08C816B
:1004C0009D81019791F30E94CD01EFCF2091C6004D
:1004D000022F112707FD10951F932F93FF92EF9284
:1004E0002B830E948F060F900F900F900F902B81FF
:1004F000213609F444C191E0283609F4CAC081E0EC
:100500003EE8320F323008F480E0892391E0322F48
:10051000377F343609F4BBC0982399F0822F8B7F44
:10052000823679F004E611E01F930F930E948F0644
:100530008091B6029091B7020E9451060F900F90E1
:10054000F3CF243609F49EC0283609F498C0263625
:1005500009F4A1C0223609F48DC1223709F074C014
:100560008091B6029091B7022B830E9451061C0124
:100570008091B6029091B7020E9451069A838983B6
:100580008091B6029091B7020E9451064C01809171
:10059000B6029091B7020E9451062C015F928F9390
:1005A0009F928F92BA81BF93E981EF933F922F92EE
:1005B0001F932B812F93BF92AF920E948F06F0E37F
:1005C0008F1A91089401220F331F880C991C880CF4
:1005D000991C880C991C280D391D80E3481A510874
:1005E000240D351D729EC001739E900D1124B6011D
:1005F0000E9429069B0190E3291A3108A101440FAA
:10060000551F220C331C220C331C220C331C420DB0
:10061000531D89819A81C097480F591F749EC0014C
:10062000759E900D1124B6010E942906CB01B901D7
:100630000E944C0184EE91E00E94A3060FB6F8944C
:10064000DEBF0FBECDBF31CF2C3609F49FC023379C
:1006500009F02BCF1F932F93A9E0B2E0BF93AF9384
:100660000E948F0622988AB187798AB985E292E042
:100670000E94A3060F900F900F900F9016CF1D822F
:100680001C8213CFA1E0B0E0BD83AC830ECF90E01D
:1006900043CF90E034CF8091B6029091B7022B8384
:1006A0000E9451062C018091B6029091B7020E94DF
:1006B00051069A8389838091B6029091B7020E9475
:1006C00051064C018091B6029091B7020E945106EA
:1006D0001C013F928F939F928F92BA81BF93E981C1
:1006E000EF935F924F921F932B812F93BF92AF9204
:1006F0000E948F06F0E38F1A91089401220F331F96
:10070000880C991C880C991C880C991C280D391D83
:1007100080E3281A3108220D331D729EC001739E9A
:10072000900D1124B6010E9429069B0190E3491AFD
:100730005108A201440F551F440C551C440C551C74
:10074000440C551C440D551D89819A81C097480F52
:10075000591F749EC001759E900D1124B6010E9410
:100760002906CB01B9010E94980089EB91E00E9413
:10077000A3060FB6F894DEBF0FBECDBF96CE81E5BF
:1007800091E00E94A3060E94AE04CCCE8091B602F6
:100790009091B7022B830E9451061C018091B602F2
:1007A0009091B7020E9451069A8389838091B60284
:1007B0009091B7020E9451064C018091B60290912F
:1007C000B7020E9451062C015F928F939F928F92E5
:1007D000BA81BF93E981EF933F922F921F932B81B0
:1007E0002F93BF92AF920E948F06F0E38F1A910869
:1007F0009401220F331F880C991C880C991C880CBB
:10080000991C280D391D80E3481A5108240D351D07
:10081000729EC001739E900D1124B6010E9429069C
:100820009B0190E3291A3108A101440F551F220CA6
:10083000331C220C331C220C331C420D531D8981A6
:100840009A81C097480F591F749EC001759E900DE4
:100850001124B6010E942906CB01B9010E941001A2
:1008600087EF91E00E94A3060FB6F894DEBF0FBE9B
:10087000CDBF1BCE8091B6029091B7022B830E9410
:1008800051061C018091B6029091B7020E94510658
:100890009A8389838091B6029091B7020E94510693
:1008A0004C018091B6029091B7020E9451062C0132
:1008B0005F928F939F928F92BA81BF93E981EF935A
:1008C0003F922F921F932B812F93BF92AF920E9442
:1008D0008F06F0E38F1A91089401220F331F880CC2
:1008E000991C880C991C880C991C280D391D80E3D3
:1008F000481A5108240D351D729EC001739E900D3B
:100900001124B6010E9429069B0190E3291A31089F
:10091000A101440F551F220C331C220C331C220C46
:10092000331C420D531D89819A81C097480F591F6E
:10093000749EC001759E900D1124B6010E94290677
:10094000CB01B9010E94D4008EEC91E00E94A30675
:100950000FB6F894DEBF0FBECDBFA7CD8091B60213
:100960009091B7020E945106833741F08D36B1F75E
:100970008FE392E00E94A3060E943D0222988AB172
:1009800087798AB982E392E00E94A306E7CFAF920B
:10099000BF92CF92DF92EF92FF920F931F93CF936C
:1009A000DF935C017B0180E2F5018083F1E0EF1AC7
:1009B000F1088501CFEFDFEF0DC02196680180912E
:1009C000B6029091B7020E945106F80181938F01FF
:1009D000813731F0CE15DF0584F36501CC0EDD1EC5
:1009E000F6011082CE01DF91CF911F910F91FF9000
:1009F000EF90DF90CF90BF90AF900895CF9385B1E7
:100A000093E0892785B986E792E09F938F9384E5E9
:100A100092E09F938F930E948F06C09176020F9071
:100A20000F900F900F90C33759F1C53609F461C08C
:100A30008091740290917502059744F5C63609F4C9
:100A400042C0C73684F0CC3609F448C0C237E1F45E
:100A500060912A0170912B0180912C0190912D01C0
:100A6000CF910C944C01C23679F460912A017091B7
:100A70002B0180912C0190912D01CF910C94D400E9
:100A800022988AB187798AB9CF9108958AE291E054
:100A90009F938F938CE291E09F938F938DE592E0EB
:100AA0009F938F9388E792E09F938F930E94D00645
:100AB0008DB79EB708960FB6F8949EBF0FBE8DBF38
:100AC000C63609F0BECF60912A0170912B0180914A
:100AD0002C0190912D01CF910C94980060912A01E6
:100AE00070912B0180912C0190912D01CF910C944C
:100AF0001001CF910C949C0106C08091B602909198
:100B0000B7020E9451068091C00087FDF6CF08957C
:100B10008091720290917302892B51F00E94FE0421
:100B20001092730210927202109275021092740267
:100B30000C94CD011F920F920FB60F9211242F9398
:100B40003F934F938F939F93EF93FF934091C600F2
:100B50004A30D9F080917402909175029C012F5F08
:100B60003F4F3093750220937402FC01EA58FD4F09
:100B70004083FF91EF919F918F914F913F912F91E2
:100B80000F900FBE0F901F901895E0917402F09196
:100B90007502EA58FD4F108281E090E09093730255
:100BA00080937202E6CF1092C50080E18093C4006A
:100BB0008091C00082608093C00086E08093C20074
:100BC00088E18093C1008CE191E09093B902809319
:100BD000B8028EE091E09093B7028093B60283E66C
:100BE00092E00E94A30680917C00806480937C0048
:100BF00080917A00876880937A0022988AB18779F9
:100C00008AB984B1836084B9289A2998539A229A20
:100C1000559A569A8091C10088698093C100789452
:100C20008091C00087FF0AC08091B6029091B70200
:100C30000E9451068091C00087FDF6CF1092750288
:100C40001092740210927302109272020E94880530
:100C5000FDCF97FB072E16F4009407D077FD09D03F
:100C60000E943D0607FC05D03EF4909581959F4F6C
:100C70000895709561957F4F0895AA1BBB1B51E1A4
:100C800007C0AA1FBB1FA617B70710F0A61BB70BFC
:100C9000881F991F5A95A9F780959095BC01CD01A1
:100CA0000895CF93DF93EC012B8120FF33C026FF03
:100CB0000AC02F7B2B838E819F8101969F838E8319
:100CC0008A8190E029C022FF0FC0E881F9818081EC
:100CD000992787FD9095009719F420622B831AC0FD
:100CE0003196F983E8830EC0EA85FB85099597FF65
:100CF00009C02B81019611F480E101C080E2822BB2
:100D00008B8308C02E813F812F5F3F4F3F832E830F
:100D1000992702C08FEF9FEFDF91CF910895A0E058
:100D2000B0E0E5E9F6E00C945A0CFE0135966191CD
:100D30007191AF018091B8029091B9020E94E906C9
:100D4000E2E00C94760C0F931F93CF93DF93E09126
:100D5000B802F091B902238121FF1BC0EC0100E031
:100D600010E089916091B8027091B902DB01189688
:100D7000ED91FC911997882331F00995892B89F31E
:100D80000FEF1FEFEECF8AE00995892B11F4C80110
:100D900002C08FEF9FEFDF91CF911F910F910895C8
:100DA000AEE0B0E0E6EDF6E00C945A0C85E08C8302
:100DB0008B899C899A838983AE01495E5F4F6D89D7
:100DC0007E89CE0101960E943C0A2E96E2E00C94A8
:100DD000760CACE0B0E0EFEEF6E00C944A0C7C014F
:100DE0006B018A01FC0117821682838181FFBDC1DC
:100DF000CE0101964C01F7019381F60193FD859197
:100E000093FF81916F01882309F4ABC1853239F4D6
:100E100093FD859193FF81916F01853229F4B7018C
:100E200090E00E949E0BE7CF512C312C20E0203225
:100E3000A0F48B3269F030F4803259F0833269F4D7
:100E400020612CC08D3239F0803339F4216026C006
:100E50002260246023C0286021C027FD27C030ED18
:100E6000380F3A3078F426FF06C0FAE05F9E300D66
:100E70001124532E13C08AE0389E300D1124332ED6
:100E800020620CC08E3221F426FD6BC1206406C0A6
:100E90008C3611F4206802C0883641F4F60193FDC7
:100EA000859193FF81916F018111C1CF982F9F7D13
:100EB0009554933028F40C5F1F4FFFE3F9830DC066
:100EC000833631F0833771F0833509F05BC022C07F
:100ED000F801808189830E5F1F4F44244394512C75
:100EE000540115C03801F2E06F0E711CF801A080AA
:100EF000B18026FF03C0652D70E002C06FEF7FEF69
:100F0000C5012C870E94930B2C0183012C852F7720
:100F1000222E17C03801F2E06F0E711CF801A0807C
:100F2000B18026FF03C0652D70E002C06FEF7FEF38
:100F3000C5012C870E94880B2C012C852068222E4D
:100F4000830123FC1BC0832D90E048165906B0F4A2
:100F5000B70180E290E00E949E0B3A94F4CFF50135
:100F600027FC859127FE81915F01B70190E00E94E7
:100F70009E0B31103A94F1E04F1A5108411451047C
:100F800071F7E5C0843611F0893639F5F80127FF8D
:100F900007C060817181828193810C5F1F4F08C0FF
:100FA00060817181882777FD8095982F0E5F1F4F94
:100FB0002F76B22E97FF09C0909580957095619518
:100FC0007F4F8F4F9F4F2068B22E2AE030E0A40160
:100FD0000E94E90BA82EA81844C0853729F42F7E5B
:100FE000B22E2AE030E025C0F22FF97FBF2E8F36D7
:100FF000C1F018F4883579F0B4C0803719F088371B
:1010000021F0AFC02F2F2061B22EB4FE0DC08B2D6A
:101010008460B82E09C024FF0AC09F2F9660B92EA5
:1010200006C028E030E005C020E130E002C020E149
:1010300032E0F801B7FE07C060817181828193813F
:101040000C5F1F4F06C06081718180E090E00E5FF1
:101050001F4FA4010E94E90BA82EA818FB2DFF77B3
:10106000BF2EB6FE0BC02B2D2E7FA51450F4B4FE60
:101070000AC0B2FC08C02B2D2E7E05C07A2C2B2D69
:1010800003C07A2C01C0752C24FF0DC0FE01EA0DAF
:10109000F11D8081803311F4297E09C022FF06C032
:1010A0007394739404C0822F867809F0739423FD9F
:1010B00013C020FF06C05A2C731418F4530C571891
:1010C000732C731468F4B70180E290E02C870E94BF
:1010D0009E0B73942C85F5CF731410F4371801C050
:1010E000312C24FF12C0B70180E390E02C870E94CE
:1010F0009E0B2C8522FF17C021FF03C088E590E0DE
:1011000002C088E790E0B7010CC0822F867859F0C2
:1011100021FD02C080E201C08BE227FD8DE2B70114
:1011200090E00E949E0BA51438F4B70180E390E094
:101130000E949E0B5A94F7CFAA94F401EA0DF11D78
:101140008081B70190E00E949E0BA110F5CF332063
:1011500009F451CEB70180E290E00E949E0B3A94D0
:10116000F6CFF7018681978102C08FEF9FEF2C9613
:10117000E2E10C94660C20FD09C0FC0123FD05C0D2
:1011800022FF02C07383628351834083089544FD2C
:1011900010C046FD10C0DB01FC01AA0FBB1FEE1FF3
:1011A000FF1F1094D1F76A0F7B1F8E1F9F1F31E026
:1011B00003C033E001C034E0660F771F881F991F1A
:1011C0003150D1F7620F711D811D911D08950F934C
:1011D0001F93CF93DF938C01C8010E945106EC014D
:1011E00097FD08C00E94750B892BB1F7B801CE019D
:1011F0000E94D00BCE01DF91CF911F910F910895E6
:101200008F929F92AF92CF92DF92EF92FF920F93C5
:101210001F93CF93DF93EC01A62E4A01022F0E9469
:101220005106AC0155274B32510521F04D32510585
:1012300059F40068AA94A11002C080E069C0CE01F0
:101240000E94510697FDF9CF102F1D7F302F30736C
:1012500009F58033F9F4FF24FA94FA0C09F444C038
:10126000CE010E94510697FD3FC0382F3F7D383593
:1012700059F41264AA94AA94AA20B1F1CE010E9452
:10128000510697FF07C030C006FF02C0126001C0C0
:101290001261AF2CC12CD12C760120ED280F283003
:1012A00080F014FF04C0BE010E94D00B1AC02A3087
:1012B00040F016FFF8CF2F7D3FEE320F363098F713
:1012C0002750412FC701B6010E94C7086B017C015E
:1012D0001260AA94AA2059F0CE010E94510697FFED
:1012E000DCCF11FD04C0A9CFC12CD12C760117FF92
:1012F00008C0F094E094D094C094C11CD11CE11CAF
:10130000F11C212FB701A601C4010E94BB0881E096
:10131000DF91CF911F910F91FF90EF90DF90CF90D1
:10132000AF909F908F900895A1E2B0E0EAE9F9E0D4
:101330000C944F0C5C017A018E010F5F1F4F680106
:1013400080E2D8011D928A95E9F7F501738040E0AB
:1013500050E0812CB0E0912C81E090E0F90173FC29
:10136000A59173FEA1918F017A2F9F01A11103C056
:1013700080E090E07DC0AE3519F44115510559F17A
:10138000E92DF0E0E417F5073CF4AD3569F1AD3235
:1013900019F4BB2319F103C0B11101C08A2EE72F44
:1013A000E695E695E69586010E0F111DF801A72F2B
:1013B000A7708C0102C0000F111FAA95E2F7D80197
:1013C000B081BA2BB083781559F0781510F47F5F8F
:1013D000E6CF7150E4CF9924939403C0B1E001C0EB
:1013E000B0E04F5F5F4FBACFBB2319F08E818062B0
:1013F0008E83911003C09924939415C0F601CE01F9
:101400008196208120952193E817F907D1F7F3CF32
:10141000E114F10429F0D7018C93F70131967F0193
:10142000615001F1912CC50169A30E94510669A187
:1014300097FD16C0282F269526952695F601E20FD2
:10144000F11D208130E0AC014770552702C0359571
:1014500027954A95E2F720FDDBCFB5010E94D00B1E
:10146000911086CFE114F10411F0D7011C92C8014C
:10147000A196EDE00C946B0C4F925F927F928F924D
:101480009F92AF92BF92CF92DF92EF92FF920F9313
:101490001F93CF93DF931F92CDB7DEB78C012B0143
:1014A0007A01FC0117821682A12CF801D380F20187
:1014B000D3FC8591D3FE8191382F2F01882309F425
:1014C000FEC090E039830E94750B3981892B21F091
:1014D000C8010E94E708E9CF353241F4F201D3FC9C
:1014E0003591D3FE31912F01353269F4C80139832A
:1014F0000E945106398197FDE0C03817B1F2B8015A
:101500000E94D00BDCC03A3241F4D3FC3591D3FEBB
:1015100031912F01BB24B39401C0B12C712C20ED6B
:10152000230F2A3090F4FB2DF260BF2E672D70E060
:1015300080E090E040E20E94C708762EF201D3FCE2
:101540003591D3FE31912F01EACFB1FE03C0711066
:1015500003C0B5C077247A94383619F03C3661F070
:1015600014C0F201D3FC3591D3FE31912F013836EE
:1015700061F4FB2DF860BF2E8B2D8460B82EF20134
:10158000D3FC3591D3FE31912F01332309F497C059
:10159000632F70E088E690E039830E947D0B3981EB
:1015A000892B09F48CC0B0FC07C0F701C080D18042
:1015B000C70102967C0102C0C12CD12C3E3651F4E9
:1015C000F8014681578160E070E02B2DC6010E9432
:1015D000BB086BCF3336A9F4B1FC02C077247394F7
:1015E000C8010E94510697FD68C0C114D10429F0BA
:1015F000F6018083C60101966C017A947110F0CFD8
:1016000058C03B3559F49201A601672DC8010E94CC
:1016100094092C01009709F04CC046C0C8013983D9
:101620000E94E708398197FD48C03F3671F128F4E0
:10163000343639F1393681F12CC0333771F0353712
:1016400001F127C0C114D10429F0F6018082C6013E
:1016500001966C017A94772071F0C8010E945106BE
:101660004C0197FD08C00E94750B892B59F3B801F6
:10167000C4010E94D00BC114D104D9F0F60110822C
:1016800018C0FB2DF062BF2E07C08B2D8061B82ED5
:1016900003C09B2D9064B92E2B2DA601672DC80188
:1016A0000E940009811105C0F8018381807329F42B
:1016B00006C0B0FCFACEA394F8CEAA2019F08A2D69
:1016C00090E002C08FEF9FEF0F90DF91CF911F91BD
:1016D0000F91FF90EF90DF90CF90BF90AF909F90D1
:1016E0008F907F905F904F9008959111D0C080327D
:1016F00019F089508550D0F70895FC010590061621
:1017000021F00020D9F7C00108953197CF01089545
:10171000FC010590615070400110D8F780959095BC
:101720008E0F9F1F0895FC016150704001900110C1
:10173000D8F7809590958E0F9F1F08950F931F9354
:10174000CF93DF93182F092FEB018B8181FD03C00D
:101750008FEF9FEF20C082FF10C04E815F812C81F0
:101760003D81421753077CF4E881F9819F012F5F87
:101770003F4F39832883108306C0E885F985812F80
:101780000995892B29F72E813F812F5F3F4F3F839A
:101790002E83812F902FDF91CF911F910F9108956C
:1017A000FB01238120FF12C026FD10C08F3F3FEFB9
:1017B000930761F082832F7D206423832681378104
:1017C0002150310937832683992708958FEF9FEFA2
:1017D0000895FA01AA27283051F1203181F1E894C7
:1017E0006F936E7F6E5F7F4F8F4F9F4FAF4FB1E014
:1017F0003ED0B4E03CD0670F781F891F9A1FA11D0F
:10180000680F791F8A1F911DA11D6A0F711D811D0F
:10181000911DA11D20D009F468943F912AE0269FD4
:1018200011243019305D3193DEF6CF010895462F33
:101830004770405D4193B3E00FD0C9F7F6CF462F14
:101840004F70405D4A3318F0495D31FD405241937D
:1018500002D0A9F7EACFB4E0A6959795879577953A
:101860006795BA95C9F700976105710508959B01C1
:10187000AC010A2E06945795479537952795BA954A
:10188000C9F7620F731F841F951FA01D0895992724
:10189000882708952F923F924F925F926F927F9286
:1018A0008F929F92AF92BF92CF92DF92EF92FF9270
:1018B0000F931F93CF93DF93CDB7DEB7CA1BDB0B1C
:1018C0000FB6F894DEBF0FBECDBF09942A883988C1
:1018D00048885F846E847D848C849B84AA84B984C8
:1018E000C884DF80EE80FD800C811B81AA81B981D4
:1018F000CE0FD11D0FB6F894DEBF0FBECDBFED01E8
:061900000895F894FFCFEA
:101906000000000300000000590060000000000015
:10191600000100000000000060000000000000025E
:1019260000000000590000000000FF00FF004544D1
:1019360000453A434C00453A435200453A42004579
:101946003A4649520055445230203D2025630D0A3F
:10195600004175746F206D6F646520656E61626C01
:1019660065640D00456E7465722076616C6964204D
:10197600646972656374696F6E206368617261631E
:1019860074657228662C622C6C2C722C732C642C59
:10199600682900596F7520656E74657265642069E3
:1019A6006E707574206173203A20256320256325A7
:1019B6006320256325630D0A00526F626F74206DE4
:1019C6006F76657320666F72776172640D00526F71
:1019D600626F74206D6F766573206261636B7761E9
:1019E60072640D00526F626F74206D6F766573209E
:1019F60072696768740D00526F626F74206D6F763E
:101A06006573206C6566740D00596F7520656E747C
:101A16006572656420696E707574206173203A2062
:101A260025630D0A00526F626F742073746F7073B2
:101A36000D00526F626F742053746F70730D004DFA
:101A4600616E75616C206D6F646520656E61626C98
:101A560065640D00434D443A2025730A0025642031
:101A660025640048656C6C6F20776F726C64210D7D
:021A760000006E
:00000001FF
